:100000006F00301100000000E2060000E40600006E
:1000100000000000000000000000000000000000E0
:1000200000000000000000000000000000000000D0
:10003000100900000000000010090000000000008E
:10004000100900001009000010090000100900004C
:10005000100900001009000010090000100900003C
:10006000100900001009000010090000100900002C
:10007000100900001009000010090000100900001C
:10008000100900001009000010090000100900000C
:100090001009000010090000100900000000000015
:1000A000511126C022C206C4828282441244A24058
:1000B000310182802A86014593F6150091C232955E
:1000C00085810606F5F9828000000000634E050276
:1000D00063C305042E86AA857D5515C285466378BF
:1000E000B6006356C00006068606E36CB6FE014500
:1000F00063E4C500918D558D85820582F5FA828075
:100100008682C93F2E8582823305A04063D70500D1
:10011000B305B040C1B7B305B0408682653F330533
:10012000A0408282868263C70500634905005D376F
:100130002E858282B305B040E35B05FE3305A04007
:10014000513F3305B040828200003D432A876373EC
:10015000C3029377F700BDEFADE5937606FF3D8AC6
:10016000BA960CC34CC30CC74CC74107E36BD7FE10
:1001700011E28280B306C3408A0697020000969679
:100180006780A6002307B700A306B7002306B700C1
:10019000A305B7002305B700A304B7002304B700E5
:1001A000A303B7002303B700A302B7002302B700DD
:1001B000A301B7002301B700A300B7002300B700D5
:1001C000828093F5F50F93968500D58D9396050162
:1001D000D58D61B793962700970200009696868288
:1001E000E78086FA9680C1171D8F3E96E374C3F8A8
:1001F000A5B7EFF2FFEAB727014071111385074059
:100200009D460546A145EF00D007B72701409387DB
:100210000740014481443EC002458545EF00F0049B
:1002200002458945EF00101265DD09C40245EF0063
:10023000F010AA9405041374F40FAD47E31EF4FC08
:10024000A9452685413D420541811101B9BDEFF225
:100250003FE51301C1FD61468145680002C002C24D
:1002600002C4E535854513050022EF00501B3165BA
:10027000EF00B01937150140930700048A85130574
:100280000580372401407C8002C4EF00900D1305E7
:100290000440EF000073B7070E003ECC6C008547AA
:1002A000130504402300F10202C602C802CA02CEAE
:1002B000EF008073B705000213050440EF0030091A
:1002C000854513050440EF00007713050440EF0057
:1002D0008077930404402685EF0080776DFD130539
:1002E000044037240140EF002077130404402285A6
:1002F000EF0020776DFDF53D130141027DB3EFF274
:100300003FDAC53D5DB3EFF2BFD9370400201305D6
:100310008400B122130584009305C00CD5229305F7
:10032000400413058400E92A49B38280EFF25FD7C5
:10033000370400207111AA84130584000D221305CF
:1003400084009305C00C6D2A9305E00B130584000F
:10035000452A13058400C12A2AC013058400E1221E
:10036000824722055D8D42054185EF10E00FB717EA
:10037000000083A5C759EF00D06088C00545110172
:100380002DB3EFF2FFD137040020AA8413058400B7
:10039000F920130584009305C00C9D2213058400E9
:1003A0009305E004B12A130584008145912A1305C1
:1003B00084008145B12293F5F40F1305840089224E
:1003C000EDB1EFF2FFCD2A84B715014037050020CB
:1003D00011469385058013058500A52A228555378A
:1003E000E9B1EFF2FFCB2A844A21EF0090111840C7
:1003F0000A05BD471443B397A70093C7F7FFF58FCE
:100400001CC314439147B397A700D58F1CC371B980
:10041000EFF21FC92A844A21EF00B00E18400A05E6
:10042000BD471443B397A70093C7F7FFF58F1CC3CD
:1004300014438D47B397A700D58F1CC3BDB1EFF20E
:100440003FC64E2108410146EF00007AB9B9EFF2EC
:100450003FC54E2108410546EF000079B9B1EFF2E2
:100460003FC42A84E93F228565371305001EEF004B
:1004700010022285BD3713056004EF0050014E20A5
:100480000840EF00C0752A841305A019EF00300062
:10049000228521B9EFF2DFC02A8491CD4D37228524
:1004A000853F1945EF00A07E2285253F13050004F6
:1004B000EF00E07DDDBE61372285993F1305C00363
:1004C000EF00E07C2285313F2945DDB7EFF25FBDCB
:1004D0002A84B53722852D3F0945EF00407B2285D0
:1004E00009372945EF00A07A4E200840EF00206F21
:1004F0002A8413052003EF0080793335800075B618
:10050000EFF21FBA7111AA87AE84214493F514004B
:100510003E857D143EC01374F40FAD3F8580824745
:1005200075F4110159B6EFF2BFB77111AA87A14452
:1005300001443E853EC0593F1E050580FD14498C8F
:1005400093F4F40F1374F40F8247E5F4228511013C
:10055000A9BEEFF2FFB40CC152A12A84553D2285F9
:10056000FD3513054006EF0020762285C93D1305B1
:100570004006EF0060752285D93D1305800CEF0021
:10058000A07425B6711102C013071003824763548B
:10059000F70011018280824785073EC0C5BFEFF298
:1005A0003FB00546914537150140EF00E063054631
:1005B000894537150140EF002063E9370146914531
:1005C00037150140EF004062CDB4EFF27FAD014638
:1005D000894537150140092D753701469145371575
:1005E0000140192545370546894537150140ED2B52
:1005F000513F0546914537150140FD237DB4EFF28B
:100600003FAAAA8421440146894537150140E92BB8
:1006100013F61400914537150140F9237D149D37D9
:1006200005468945371501401374F40F752B8580F5
:10063000913F71F801468945371501407523993777
:10064000054691453715014045232D3F054689450F
:1006500037150140512B3D376FF03FA5EFF25FA4F6
:1006600051118545414502C002C202C44D2B994734
:100670007C80D1473EC48A858547371501403EC2FC
:10068000CD2131016FF07FA2EFF29FA171112AC03D
:10069000393702451D891365850895373D371101A6
:1006A0006FF0BFA0EFF2DF9FF547AA84014463E734
:1006B000B70085679387075AAE97802319C21364E2
:1006C0000408F13D130540041D3F0137C93D138562
:1006D00004FC1375F50F253722851537FD356FF0AE
:1006E000DF9C01A0B707EFBE37E700E0938707085C
:1006F0003CC701A0EFF2DF9A51118545114502C0B8
:1007000002C202C4292B85454145112B914737155B
:1007100001400D447C808A85D147130505803EC485
:1007200022C28121C1477C808A85C147371501409B
:100730003EC422C23D2131016FF03F97EFF25F9638
:10074000411105457D21112BEFF07FB013054006C7
:10075000A52B4D3721370545053FB7070304938780
:1007600017201305F0073EC4A939B717000083A767
:10077000C75B81443EC26136AA8537C512001305A6
:1007800005B5EFF03F9593170501C1833EC03714BF
:100790000140613E0546914513050480B121A5360F
:1007A000130504800146914581216800413619CD29
:1007B00032449305000081442285EF00D013635733
:1007C000050037050080218D2AC685441305803E2B
:1007D000E52903C74181938741814DC30147014604
:1007E000C1453715014098A3012192453245EF00DC
:1007F0005019B717000083A5075C8D2BEF007041DF
:100800001314050141809305803E2285EFF09F8CF3
:10081000C885930540062285EFF0DF8B4205A94588
:100820004181EFF0FF8D4885A9452285EFF09F8A31
:100830004205A9454181EFF0BF8CC8849307703E03
:1008400063E48700A947DC85394791C02D4782467C
:1008500085679387F7C763F6D702588401443C0045
:10086000A2978C231306F4FF1375F40F13361600AA
:10087000153D05049147E314F4FEF5BD0547054613
:1008800085B7DD475C84D9BFEFF29F813714024002
:100890001C403707FFF8414593E717001CC05C4038
:1008A000F98F5CC01C403707F7FE7D17F98F1CC01D
:1008B0001C403707FCFF7D17F98F1CC05C40417757
:1008C0007D17F98F5CC0B7079F001CC435261C4CF0
:1008D00093E707021CCCB717014003A70740938694
:1008E00007401377F7F023A0E74003A707401367FB
:1008F000070823A0E74089479CCAB72702409843CE
:10090000719B98C3984398C35C405CC06FF0EFF94B
:1009100001A097010020938161EF138181FF1305EE
:10092000000A97F5FF1F9385E56D17F6FF1F130665
:10093000666D63FAC5008322050023A055001105EA
:100940009105E3EAC5FE171500001305E5DB97F5F1
:10095000FF1F9385256B17F6FF1F1306266B63FA9F
:10096000C5008322050023A0550011059105E3EA87
:10097000C5FE17F5FF1F130565699385018263772F
:10098000B500232005001105E36DB5FEB722000078
:1009900093820288739002308D427390428097F266
:1009A000FFFF9382226693E2320073905230EFF0A1
:1009B000BFED970200009382A2D8739012347300A7
:1009C0002030B727014093870740631EF500EFF200
:1009D0002FED854513050020952481451305002042
:1009E000B12C6FF08FEC82805C413707F1FF130769
:1009F000F7EF7D8FDC419441A207D58FD98F5CC181
:100A00001C4537F7F1FF1307D77FD4457D8F9C49ED
:100A1000D58F94458606D58FD98F1CC55C55370771
:100A200010FF7D177D8FDC29FD1793F7F70FD20795
:100A3000D98F5CD582801C4589C593E717001CC5FA
:100A40008280F99BEDBF1C4593E787001CC582801F
:100A500008450D81058982801C4593E747001CC528
:100A6000828008450981058982801C4591C5370728
:100A70005000D98F1CC582803707B0FF7D17F98FD2
:100A8000D5BFA54763F8B704138765FF9317170011
:100A90008322C500BA971D433313F3001343F3FFBA
:100AA00033735300B397F600B3E767005CC599470B
:100AB00063E3C7047D16931726003E965859FD47F9
:100AC000B397C70093C7F7FFF98FB395C500DD8DC6
:100AD0004CD982809397150003230501AE971D47DB
:100AE0003317F7001347F7FF33776700B397F60024
:100AF0005D8F18C96DBFB14763E2C70265169317D2
:100B000026003E961859FD47B397C70093C7F7FFD5
:100B1000F98FB395C500DD8D0CD982804D16131762
:100B2000260054553A96FD47B397C70093C7F7FF81
:100B3000F58FB395C500DD8D4CD5828068454205A3
:100B40004181828008416D8D3335A00082805C41F7
:100B5000370700FA7D17F98F5CC15C41DD8D4CC110
:100B60008280944593F7060193F2F60081C7DC4139
:100B7000B3E2F20083D3050093F7F30FA5C3032379
:100B80000500611122C226C081471304800293042C
:100B9000800405473316F70033F7C3006312E602FB
:100BA000939527003D473317B7001347F7FF33737B
:100BB0006700B395B20033E36500639D860050C9BA
:100BC00085072147E397E7FC124423206500824410
:100BD00021018280E39696FE10C9DDB78280084528
:100BE0006D8D3335A000828019C20CC982804CC93A
:100BF000828023ACA1808280371702401C430E05FF
:100C000093F777F05D8D08C38280B7160240DC420F
:100C100041771307F77FF98F5D8DC8C2828099C530
:100C2000371702401C4F5D8D08CF8280B7170240F6
:100C3000984F1345F5FF798D88CF828099C5371776
:100C400002405C475D8D48C78280B7170240D84795
:100C50001345F5FF798DC8C78280EFF26FC4B707DF
:100C6000002003A50700B7157A0093850520EFF053
:100C70006FC61375F50F238FA18093175500898FC9
:100C80008A073E950E05239EA1806FF00FC2EFF2FA
:100C90002FC137F400E05C40AA85F99B5CC003C516
:100CA000E181EFF02FC108C8232404001C4093E722
:100CB00017001CC0B7F700E0D843058B75DF9843D9
:100CC000799B98C36FF06FBEEFF28FBD37F400E0F1
:100CD0005C40AA85F99B5CC003D5C181EFF08FBD54
:100CE00008C8232404001C4093E717001CC0B7F772
:100CF00000E0D843058B75DF9843799B98C36FF06C
:100D0000CFBAB307A040E98F416763F9E702130741
:100D1000F00FFD56636AF700171700001307C78E20
:100D2000BA97882336958280171700001307C78D5E
:100D3000A183BA9788239D463695828037070001A4
:100D400063ECE700171700001307078CE183BA97DD
:100D50008823DD4636958280171700001307C78A5F
:100D6000C183BA978823BD463695828037078000B5
:100D70007D1741113373A70013D675019312330009
:100D800022C4135475011374F40F6D8F26C21376A9
:100D9000F60F9354F50116C006C6FD819A87A28608
:100DA000268593133700B302C440638DB40E63519C
:100DB000500C630706149307F00F630CF414B70785
:100DC0000004B3E3F300ED4763C75728930700021D
:100DD000B3875740B397F300B3D25300B337F00053
:100DE000B3E7F2000247B307F74013975700635E7B
:100DF0000718370300047D13B3F767003E853EC034
:100E00003D2782476D15B397A7006346851A018D6C
:100E10000505130300023303A34033936700333304
:100E20006000B3D7A700B3E76700014413F777006A
:100E300019C713F7F70091466303D700910713977B
:100E400057006358071405041307F00F2685630045
:100E5000E4169A07A5839376F40FB2402244A607BE
:100E6000DE06A5837E05DD8E9244558D410182808C
:100E70006399020A130614001376E60F631806142A
:100E800063160422024663020620E38803FC02473D
:100E9000B307774013965700635A0622B387E3409F
:100EA000AE8469B76359500A49CE9307F00F6302C5
:100EB000F406B7070004B3E3F300ED4763C457201B
:100EC00093070002B3875740B397F300B3D25300A0
:100ED000B337F000B3E7F2000247BA971397570011
:100EE0006355070A05041307F00F6302E40CB70605
:100EF000007E13D71700FD16858B758FD98F3DB7F0
:100F0000638B0308FD12638702189307F00FE31C3D
:100F1000F4EA630D030801459306F00FB70740009C
:100F20002DBFB307864065EC824663850614FD1726
:100F30006383071A9306F00F631CD60EAE843A83C0
:100F4000C9BF638A0304FD12638302129307F00F83
:100F5000E315F4F67DBF6398020805041376E40FE9
:100F6000631E0612639C06100246630B0616E38698
:100F700003EEB30776001397570001446357070049
:100F8000370700FC7D17F98F054413F77700E3124C
:100F900007EA13D337009307F00FE30CF4F6931727
:100FA0009300A5839376F40F268545BD2685930689
:100FB000F00F81475DB5370300FC7D13B3F7670081
:100FC00013F77700098CE31607E6E1B78247B3878A
:100FD0007740139757006342070EE39107E20145FC
:100FE000814681479DBDB307864025E88246FDCAFC
:100FF000FD17F5CF9306F00FE303D6F46D47634674
:10100000F70E8246130700021D8F3397E600B3D711
:10101000F6003337E000D98F9E973284C1B593062E
:10102000F00FE30DD6F0824637070004558F3AC023
:101030006D47634BF7088246130700021D8F3397F5
:10104000E600B3D7F6003337E000D98FB387F3401B
:101050003284AE8459BB854771B39306F00FE30029
:10106000D6EE824637070004558F3AC041BF82470B
:101070009E97ADB53A833284AE8431BF9317330067
:10108000E38F07EAE38703E879B5638303042E85DA
:10109000BA87E1B38247B387774081BB9307F00FEC
:1010A000E307F4F082479E978583C5B59317330015
:1010B000F1FBE38203E6AE8459B58247AE84B38781
:1010C000F3402DBB854709BD854749B7E39F07EA34
:1010D0000145814759B3B387D3403284AE8431B3DD
:1010E000BA87A5BB3A8332847DB5854735B7B387C8
:1010F00076003284E5B313567501B7078000FD17FB
:1011000013D775011376F60F1303F00FB3F2A70090
:101110009356F501ED8F1377F70FFD816307660294
:101120006309670005EA11EB89EB0145639B020047
:1011300082800945F5FF65DA31A8638C020263807D
:10114000B6040545F5D67D558280094563980202AF
:101150006304C70211E3F5D7E395B6FEE343C7FE88
:101160006347E600E3EF57FC0145E3F3F2FC99E245
:10117000D9BFF1D905458280E5D3828082800146BE
:10118000C5B7011122CC1354750126CA06CE93149B
:1011900095001374F40FA5809356F5014DCC930779
:1011A000F00F630CF40CB70700048E04DD8C1304FD
:1011B00014F88147014613D57501139795001375EF
:1011C000F50F2583FD814DC51303F00F630D6502F7
:1011D0000E07130515F837030004336767002A94D8
:1011E00081431305140033C3B6002AC03D459A82DB
:1011F0006362F510170500001305053D8A07AA97DD
:101200009C433E9502851304F40F61EB93E727009E
:101210008943C1BF01431307F00FB7074000F240F5
:101220006244A6075E07A5831315F301D98FD24444
:101230005D8D05618280AE82BA841E868947630611
:10124000F60A8D47E308F6FC85471683631EF61AF7
:1012500001478147E9B7B5E013D5750113979500AC
:101260001375F50F9147014405462583FD8129FD3E
:1012700019EB93E717008543ADB79DE8A147130429
:10128000F00F09460DBF3A8532C83EC62EC436C29D
:101290003AC0712C02471303B5FF098C331767005E
:1012A0001304A4F881439246A245B247424615BFB3
:1012B000B1471304F00F0D46FDBD26852EC236C082
:1012C000BD249307B5FF1304A0F8B394F400098C70
:1012D0008147014682469245F9BD93E737008D4329
:1012E00009B78947B682E31EF6F416831307F00F99
:1012F000814735B7C167FD17B3F3F400F98FC1809B
:1013000041831E85BE85EFE0FFDAAA82BA851E857D
:10131000EFE05FDAAA83BE852685EFE0BFD9AA8712
:10132000BA852685EFE01FD913D70201BE93BA9381
:1013300063F4F300C1673E95C167FD17B3F4F30092
:10134000C204B3F2F200A6929394620093D3030115
:10135000B334900093D2A201AA93B3E254009394C1
:101360006300B3E454009397440063D7070002443A
:1013700093D714008588DD8C1307F407635FE002C0
:1013800093F7740099C793F7F40091466383D700ED
:1013900091049397440063D80700B70700F8FD173E
:1013A000FD8C130704089307E00F63CBE7049397C2
:1013B0006400A5831377F70F9DB58547B386E74093
:1013C00011C76D4601478147E34BD6E41304E40996
:1013D00033948400B3D7D400B3348000C58F13F79F
:1013E000770019C713F7F70091466303D7009107F9
:1013F00013975700634C07009A07A583014705B56B
:101400001307F00F814721BD0244BDB7054781474F
:1014100039B513577501370680009307F6FF137728
:10142000F70F9305E007B3F6A7009357F5010145C1
:1014300063F4E50099C3828082809307E0097D55BB
:10144000E3EBE7FE93055009B3E7C60063D7E50079
:101450001307A7F63395E700828013056009330769
:10146000E54033D5E7008280511106C422C226C070
:101470000DCD9357F54133C4A7001D8CAA84228556
:101480007D209307E0093387A74093076009FD801B
:1014900063CCE702A1469377F70F63D5A6006115E9
:1014A0003314A4002604258021A0814481470144EF
:1014B000260413559400A2401244DE07FE045D8DFD
:1014C000458D8244310182809307900963DDE700F6
:1014D0009307B5019546B317F400898EB356D4002F
:1014E0003334F000558C954763D6A7009307B5FFBA
:1014F0003314F400B70600FCFD16937774003376BE
:10150000D40085C39377F4009145638CB70011062E
:101510009317560063D707009307F009758E33873A
:10152000A7401314660025809377F70F51B7C16762
:10153000637CF5029307F00F1307000263EBA7002B
:10154000970700009387470CAA9788233305A74085
:1015500082802181970700009387070BAA97882331
:1015600061473305A7408280B7070001636DF5002E
:1015700061819707000093872709AA97882321474D
:101580003305A74082804181970700009387C707F2
:10159000AA97882341473305A74082800000803DF9
:1015A0003F305B79746D6F387F7D004008015C23AC
:1015B000182143734F4E76075E0000000000C842BA
:1015C0000000A04030FDFFFF74FCFFFF74FCFFFF34
:1015D00072FCFFFF78FCFFFF78FCFFFF50FCFFFF71
:1015E00072FCFFFF78FCFFFF50FCFFFF78FCFFFF61
:1015F00072FCFFFF1EFDFFFF1EFDFFFF1EFDFFFF34
:1016000050FCFFFF0001020203030303040404046F
:10161000040404040505050505050505050505057E
:10162000050505050606060606060606060606065E
:10163000060606060606060606060606060606064A
:10164000060606060707070707070707070707072E
:10165000070707070707070707070707070707071A
:10166000070707070707070707070707070707070A
:1016700007070707070707070707070707070707FA
:1016800007070707080808080808080808080808DE
:1016900008080808080808080808080808080808CA
:1016A00008080808080808080808080808080808BA
:1016B00008080808080808080808080808080808AA
:1016C000080808080808080808080808080808089A
:1016D000080808080808080808080808080808088A
:1016E000080808080808080808080808080808087A
:1016F000080808080808080808080808080808086A
:0417000008080808C5
:0817040000366E010000000038
:00000001FF
