:100000006F00301900000000060300000803000024
:1000100000000000000000000000000000000000E0
:1000200000000000000000000000000000000000D0
:10003000900900000000000090090000000000008E
:10004000900900009009000090090000900900004C
:10005000900900009009000090090000900900003C
:10006000900900009009000090090000900900002C
:10007000900900009009000090090000900900001C
:10008000900900009009000090090000900900000C
:100090009009000090090000900900000000000095
:1000A000511126C022C206C4828282441244A24058
:1000B000310182802A86014593F6150091C232955E
:1000C00085810606F5F9828000000000634E050276
:1000D00063C305042E86AA857D5515C285466378BF
:1000E000B6006356C00006068606E36CB6FE014500
:1000F00063E4C500918D558D85820582F5FA828075
:100100008682C93F2E8582823305A04063D70500D1
:10011000B305B040C1B7B305B0408682653F330533
:10012000A0408282868263C70500634905005D376F
:100130002E858282B305B040E35B05FE3305A04007
:10014000513F3305B040828200003D432A876373EC
:10015000C3029377F700BDEFADE5937606FF3D8AC6
:10016000BA960CC34CC30CC74CC74107E36BD7FE10
:1001700011E28280B306C3408A0697020000969679
:100180006780A6002307B700A306B7002306B700C1
:10019000A305B7002305B700A304B7002304B700E5
:1001A000A303B7002303B700A302B7002302B700DD
:1001B000A301B7002301B700A300B7002300B700D5
:1001C000828093F5F50F93968500D58D9396050162
:1001D000D58D61B793962700970200009696868288
:1001E000E78086FA9680C1171D8F3E96E374C3F8A8
:1001F000A5B7EFF2FFEAB727014071111385074059
:100200009D460546A145EF00D00FB72701409387D3
:100210000740014481443EC002458545EF00F00C93
:1002200002458945EF00101A65DD09C40245EF005B
:10023000F018AA9405041374F40FAD47E31EF4FC00
:10024000A9452685413D420541811101B9BDEFF225
:100250003FE51301C1FD61468145680002C002C24D
:1002600002C4E535854513050022EF00B03931653C
:10027000EF00F02D37150140930700048A85130520
:100280000580372401407C8002C4EF0090151305DF
:100290000440EF00007BB7070E003ECC6C008547A2
:1002A000130504402300F10202C602C802CA02CEAE
:1002B000EF00807BB705000213050440EF0030110A
:1002C000854513050440EF00007F13050440EF004F
:1002D000807F930404402685EF00807F6DFD130529
:1002E000044037240140EF00207F1304044022859E
:1002F000EF00207F6DFDF53D130141027DB3EFF26C
:100300003FDAC53D5DB301A0B707EFBE37E700E0B8
:10031000938707083CC701A0EFF29FD8370400205D
:1003200013058402A92E130584029305C00CD52E53
:100330009305400413058402ED2685BB8280EFF20D
:100340003FD6370400207111AA8413058402052EBC
:10035000130584029305C00CE9269305E00B1305F1
:100360008402C12613058402CD262AC01305840207
:10037000E92E824722055D8D42054185EF10B02DA3
:10038000B727000083A5C7F8EF10807888C005451F
:10039000110121BBEFF2DFD037040020AA8413053E
:1003A0008402F12C130584029305C00C9D2E1305C5
:1003B00084029305E004B526130584028145952641
:1003C000130584028145B12E93F5F40F13058402C1
:1003D000892EE1B9EFF2DFCC2A84B7150140370549
:1003E000002011469385058013058502712622851C
:1003F000553765B9EFF2DFCA51118545114502C085
:1004000002C202C4EF00102085454145EF00901F55
:100410009147371501400D447C808A85D1471305EB
:1004200005803EC422C2EF00C07BC1477C808A8524
:10043000C147371501403EC422C2EF00807A310126
:10044000ADB1EFF2FFC531110545EF00D00EEF0061
:10045000702E716513050520EF005038CD3B130554
:100460004006EF00103479374D210545E921B707E3
:100470000304938717201305F0073EC6A13F3725D5
:100480000000130585F9EF10001CB727000083A7B3
:1004900047F981443EC2A535AA8537C51200130528
:1004A00005B50D3993170501C1833EC037140140CE
:1004B00071351305048005469145EF00E07AA93DAA
:1004C0001305048001469145EF00007A0808853D38
:1004D0003724000021C5C244930500002685EF1093
:1004E000605A6352050EB7070080832504F9BD8C5E
:1004F000268526C8EF10C061EF10900A93054006CC
:1005000015312AC42685EF10B0092246AA85372561
:100510000000130545FAEF10C01085441305803E16
:10052000EF00302803C74181938741816305070CA1
:1005300001470146C1453715014098A3EF00C0723D
:10054000832504F94245EF10A05C9245EF10E01AB4
:10055000EF10100B1314050141809305803E228596
:10056000953EC887930540062285AD364205A945CC
:10057000418179364887A9452285A93E4205A9458A
:100580004181BD3EC8869307703E63E48700A9475A
:10059000DC87394791C02D47824685679387F7C727
:1005A00063FED704588601447C00A2978C2313066F
:1005B000F4FF1375F40F13361600612E05049147EE
:1005C000E314F4FEC9BD832504F92685EF104054D9
:1005D000EF10007D93054006B1362AC42685EF1042
:1005E000207C2246AA8537250000130585FBEF10E5
:1005F0004003814425B7054705462DBFDD475C868E
:100600005DB7EFF2FFA92A844A21EF106008184075
:100610000A05BD471443B397A70093C7F7FFF58FAB
:100620001CC314439147B397A700D58F1CC3B5BC17
:10063000EFF21FA72A844A21EF10800518400A050F
:10064000BD471443B397A70093C7F7FFF58F1CC3AB
:1006500014438D47B397A700D58F1CC3B9B4EFF2ED
:100660003FA44E2108410146EF0000603DBCEFF27F
:100670003FA34E2108410546EF00005F3DB4EFF275
:100680003FA22A84E93F228565371305001EEF004B
:10069000B00D2285BD3713056004EF00F00C4E202D
:1006A0000840752B2A841305A019EF00F00B228552
:1006B0006FF0BF9FEFF2DF9E2A8499CD4D372285E0
:1006C000853F1945EF00500A2285253F1305000498
:1006D000EF0090096FF07F9D59372285913F1305F8
:1006E000C003EF0070082285293F2945D5B7EFF2F6
:1006F0003F9B2A84AD372285253F0945EF00D00670
:10070000228501372945EF0030064E200840812B15
:100710002A8413052003EF003005333580006FF085
:10072000DF98EFF2FF977111AA87AE84214493F509
:1007300014003E857D143EC01374F40FA53F8580E0
:10074000824775F411016FF05F96EFF27F9571119A
:10075000AA87A14401443E853EC0513F1E05058045
:10076000FD14498C93F4F40F1374F40F8247E5F4ED
:10077000228511016FF07F93EFF29F920CC152A17D
:100780002A847D352285E53513054006EF0070018A
:100790002285F13513054006EF00B0002285C13DEA
:1007A0001305800CEF00E07F6FF03F90EFF25F8F5A
:1007B000371402401C403707FFF8414593E7170004
:1007C0001CC05C40F98F5CC01C403707F7FE7D17EA
:1007D000F98F1CC01C403707FCFF7D17F98F1CC028
:1007E0005C4041777D17F98F5CC0B7079F001CC440
:1007F000B1231C4C93E707021CCCB717014003A799
:100800000740938607401377F7F023A0E74003A73C
:1008100007401367070823A0E74089479CCAB7270A
:1008200002409843719B98C3984398C35C405CC056
:100830006FF0BF87711102C0130710038247635422
:10084000F70011018280824785073EC0C5BFEFF2E5
:100850003F850546914537150140392105468945B3
:10086000371501401121F9370146914537150140EF
:10087000E52E6FF09F83EFF2BF8201468945371561
:100880000140DD26453F0146914537150140E92EDF
:1008900055370546894537150140F926613F05461C
:1008A000914537150140C9266FF03F80EFF24FFFA9
:1008B000AA8421440146894537150140752613F65F
:1008C000140091453715014045267D14A53705468E
:1008D0008945371501401374F40F79268580993FB7
:1008E00071F80146894537150140BD2EA1370546EF
:1008F0009145371501408D2E353F05468945371501
:1009000001409D26053F6FF04FFAEFF26FF951114C
:100910008545414502C002C202C4ED2199477C8051
:10092000D1473EC48A858547371501403EC2552CC4
:1009300031016FF08FF7EFF2AFF671112AC0013F6E
:1009400002451D89136585089537353711016FF00C
:10095000CFF5EFF2EFF4F547AA84014463E7B7005F
:1009600089679387C7FCAE97802319C21364040874
:10097000F93D130540041D3FFD3DD13D138504FCA9
:100980001375F50F253722851537F5356FF0EFF123
:1009900001A097010020938161E9138181FD130576
:1009A000000A97F5FF1F9385E56517F6FF1F1306ED
:1009B000666563FAC5008322050023A05500110572
:1009C0009105E3EAC5FE171500001305A57697F516
:1009D000FF1F9385256317F6FF1F1306266563FA2D
:1009E000C5008322050023A0550011059105E3EA07
:1009F000C5FE17F5FF1F13056563938501826377B5
:100A0000B500232005001105E36DB5FEB7220000F7
:100A100093820288739002308D427390428097F2E5
:100A2000FFFF9382225E93E2320073905230EFF028
:100A3000FFD797020000938202A1739012347300D3
:100A40002030B727014093870740631EF500EFF27F
:100A50002FE5854513050020E92681451305002073
:100A6000C9266FF08FE482805C413707F1FF1307DE
:100A7000F7EF7D8FDC419441A207D58FD98F5CC100
:100A80001C4537F7F1FF1307D77FD4457D8F9C496D
:100A9000D58F94458606D58FD98F1CC55C553707F1
:100AA00010FF7D177D8FDC29FD1793F7F70FD20715
:100AB000D98F5CD582801C4589C593E717001CC57A
:100AC0008280F99BEDBF1C4593E787001CC582809F
:100AD00008450D81058982801C4593E747001CC5A8
:100AE000828008450981058982801C4591C53707A8
:100AF0005000D98F1CC582803707B0FF7D17F98F52
:100B0000D5BFA54763F8B704138765FF9317170090
:100B10008322C500BA971D433313F3001343F3FF39
:100B200033735300B397F600B3E767005CC599478A
:100B300063E3C7047D16931726003E965859FD4778
:100B4000B397C70093C7F7FFF98FB395C500DD8D45
:100B50004CD982809397150003230501AE971D475A
:100B60003317F7001347F7FF33776700B397F600A3
:100B70005D8F18C96DBFB14763E2C7026516931751
:100B800026003E961859FD47B397C70093C7F7FF55
:100B9000F98FB395C500DD8D0CD982804D161317E2
:100BA000260054553A96FD47B397C70093C7F7FF01
:100BB000F58FB395C500DD8D4CD582806845420523
:100BC0004181828008416D8D3335A00082805C4177
:100BD000370700FA7D17F98F5CC15C41DD8D4CC190
:100BE0008280944593F7060193F2F60081C7DC41B9
:100BF000B3E2F20083D3050093F7F30FA5C30323F9
:100C00000500611122C226C08147130480029304AB
:100C1000800405473316F70033F7C3006312E6027A
:100C2000939527003D473317B7001347F7FF3373FA
:100C30006700B395B20033E36500639D860050C939
:100C400085072147E397E7FC12442320650082448F
:100C500021018280E39696FE10C9DDB782800845A7
:100C60006D8D3335A000828019C20CC982804CC9B9
:100C7000828037030140032743009317350063D078
:100C80000702B707C0FFF517F98F37070007D98F9D
:100C9000D9CD370700F07D17798DC98F49A8635DDD
:100CA0000500B707E0FFED17F98F37070007D98F69
:100CB000BDCD06050581D5B7B707300093160501F0
:100CC0003376F500C1826313F602370600F97D160C
:100CD000B377C70003274300798E2322C300A1C93D
:100CE0005581131745003395E60045BF9317B500AE
:100CF00063D407029357050113F6F7008D47B397A6
:100D0000C70093C7F7FFF98F37070007D98F85C151
:100D1000135755011207C1BF558112053395A6001F
:100D20009347F5FFF98F37070007D98FBDF53707D0
:100D300001405CC3828023ACA180828037170240CF
:100D40001C430E0593F777F05D8D08C38280B716BC
:100D50000240DC4241771307F77FF98F5D8DC8C2EF
:100D60008280EFF2EFB3371702405C4391462A844A
:100D7000B18B6385D700A1466380D708B7376E0172
:100D8000938707601CC0B7160240DC42918313F7BB
:100D9000F700B707002093878701BA978C23DC42BE
:100DA000184093F5F50F93F707083355B70081E71F
:100DB0003A85EFF02FB248C008C448C4B7170240C4
:100DC000DC438D46AD83FD8B13D737008A07F18B4B
:100DD000D98F13F6370113F7370063F4C600138772
:100DE00047FFB707002093874700BA978C23EFF09F
:100DF0006FAE08C86FF06FAB5C43B777DC029387C8
:100E000007C049B799C5371702401C4F5D8D08CF01
:100E10008280B7170240984F1345F5FF798D88CF30
:100E2000828099C5371702405C475D8D48C7828034
:100E3000B7170240D8471345F5FF798DC8C78280A0
:100E4000EFF20FA61629F577FD17F58FF621DA25B3
:100E50002111D58F1EA95625FD779387379FF58FD2
:100E6000D6212A842EC0D58F9625D58FB625D58F2D
:100E70005EA55E29C207C18393F7F7CF5D8F5AA99C
:100E80004800C535B7470140938707808245631204
:100E9000F406C2475A24139517003E9542070E05E3
:100EA00041873E958C41635807048605EFF08FA279
:100EB000930540062AC0EFF0EFA182479314450046
:100EC000930540063E85EFF0AFA35E24C207C187BD
:100ED00063D507020E059305400613052503EFF0C1
:100EE0006F9F1D89C98CC204C18006A461016FF087
:100EF000CF9BB24745B78A0555BF120593054006FB
:100F000013052503EFF00F9D3D89E9BF91C55E25CF
:100F10000967D98F5EA582805A25F977FD17F98F69
:100F2000D5BF93F5F51F4EA182800A216D8D333513
:100F3000A0008280EFF2CF96B707002003A507003C
:100F4000B7157A0093850520EFF0CF981375F50F4C
:100F5000238FA18093175500898F8A073E950E0530
:100F6000239EA1806FF06F94EFF28F9337F400E02F
:100F70005C40AA85F99B5CC003C5E181EFF08F93CB
:100F800008C8232404001C4093E717001CC0B7F7CF
:100F900000E0D843058B75DF9843799B98C36FF0C9
:100FA000CF90EFF2EF8F37F400E05C40AA85F99B19
:100FB0005CC003D5C181EFF0EF8F08C82324040083
:100FC0001C4093E717001CC0B7F700E0D843058B1F
:100FD00075DF9843799B98C36FF02F8DEFF24F8C9C
:100FE0002A8411651111854513051502213D85459A
:100FF00037052080BD39930700047C8037150140F8
:101000008D473EC28A85E147130505403EC4EFF097
:101010005FBD22C637440140B70708006C001305C6
:1010200004803ECA02C8231C0100193D85451305F2
:101030000480E93D71016FF04F87EFF26F86711107
:10104000AE840144635DC402B74701401387078043
:101050003A859305000432C0C93DB7470140138764
:101060000780024675D53387840083050700138502
:1010700007800504C205C1816D350246E1B732859E
:1010800011016FF08F82411106C62EC00DCD18419F
:10109000AA8705C358417D5511CB8546631BD700F0
:1010A00098472300070023A207000545B2404101ED
:1010B00082809847824614A39847050798C7D8436B
:1010C0007D17D8C3DDB705468A85853FF9BF011175
:1010D00022CC2EC206CE26CA2A848147930500025E
:1010E000634506029245BE95838505008DE563D86C
:1010F000C70263D4E702198E1305000293F5260098
:101100002AC089C501E7930500032EC0858A814462
:1011100095EAB2840DA08507F1B71D8EF1BF014697
:10112000E1BF824522853AC832C63EC4A93FA247E4
:1011300032464247FD14E34690FEB28463530600F4
:101140008144058E63C7E702A6879246338797409E
:1011500036978305070095EDB2846344900463538A
:1011600006000146F2406244D2443305F6000561B0
:1011700082801D8FBA8793050003228532C83EC640
:101180003AC41137B24722474246FD17EDF7BA94E9
:1011900065BF228532C63EC4FD35A247324685076B
:1011A0006DB78245228532C43EC2F13DFD14224610
:1011B000924765B7397106DE22DC26DA3EC23283F9
:1011C0003A8689ED92469307000301476C08FC8636
:1011D000FD3DF2506254D25421618280AA8436844B
:1011E000AE8791CA294701446317E30063D5050020
:1011F000B307B04005448646A30901021307310333
:10120000938666FC36C49A853E8532CA3AC81AC6A9
:101210003EC0EFE0FFEEA5468247324342475246CA
:1012200063D4A600A2463695130505039306F7FF7F
:10123000A30FA7FE9A853E8532CC3ACA1AC83EC68D
:1012400036C0EFE03FE9B24742435247624663F996
:10125000670401CC29CA9247898BB1C79305D00294
:10126000268532C40D3522467D169247918B95C353
:1012700006479307100632C4930500032685631EB4
:10128000F7021135930580072685F53B22460904B0
:1012900079161647924682452685153D229515BF3B
:1012A000AA8702478DB782469307D0020144A38FD5
:1012B000F6FE9307E7FF3EC04DBFF133930580056F
:1012C000E1B70145828001458280130181FD22D072
:1012D00026CE06D22AC4AE82328402C681448385D9
:1012E000020089EDA24781C781453E85693B925046
:1012F00002542685F2441301810282809307500232
:101300006388F500224516C88504B53BC24239A85A
:101310008387120013871200639CB7002245930550
:1013200050023AC88D3342478504BA82850245BFD0
:10133000D5DB9306B0026389D70463C8F600930631
:1013400030026386D704814705A09306D002638AE2
:10135000D70093060003E398D7FE1387220089473E
:1013600021A0138722008547830607001306B002D9
:101370006383C6046341D60213063002638BC60240
:10138000BA820145A54681A0138722006DBF13874D
:1013900022009147D1BF1306D0026389C60013060D
:1013A0000003E39FC6FC93E7270031A005078547AC
:1013B000C1BF93E747000507E1B713162500329533
:1013C00006053A95850203860200130706FD93750C
:1013D000F70FE3F4B6FE1307E0029946631EE6003A
:1013E00085028146A54503860200130606FD137794
:1013F000F60F63F5E50236C6038702001306A00662
:10140000630DC70A6343E6021306C0046307C70AF5
:1014100013068006630CC70881452DA81397260084
:10142000BA968606B29685027DBF1306400763060C
:10143000C7081306A0076302C7081306C006814544
:10144000631AC700038612008D456314E600850207
:1014500091458502038602009303000613071006D8
:1014600063C4C300130710049303700663C4C30668
:1014700093035006635576189303700463C1C30445
:1014800093055004635DB61613073004E310E6EAD3
:1014900018409303440016CA230CE1001EC8A30C95
:1014A00001000147BE862A862C0849A8038612003F
:1014B0008145E311E6FA890271BF8502B1BF930647
:1014C0003006E307D6FC63CFC606930680056303A8
:1014D000D602A9BD930630076304D60463CBC602C7
:1014E0009306F0066304D60E9306000793E74700C1
:1014F000E31ED6E291466391D50C930384000C4021
:10150000504016CA3AC23EC01EC8AA870147C1460B
:1015100081A893065007630AD6069306800745BF45
:101520001840B726000093034400938586FE11C33C
:10153000BA85324716CA1EC8BE862A862245EFF0F3
:101540001FB90DA091466394D502930384000C400B
:10155000504016CA3AC23EC01EC8AA870547A946CF
:1015600022458533C243AA941E84D242C1B3B246F7
:101570000C4016C836C23AC011042A87854629464F
:101580002245EFF03FC3AA9451B39146639DD50025
:10159000930384000C40504016CA3AC23EC01EC895
:1015A000AA8701476DBFB2460C4016C836C23AC082
:1015B00011042A878146E1B7B24616C80C4041465D
:1015C00036C23AC011042A8781465DBF9146639EA8
:1015D000D500930384000C40504016CA3AC23EC066
:1015E0001EC8AA870147A146A5BFB2460C4016C82F
:1015F00036C23AC011042A878146214651B70C40B1
:101600001306840040403AC22A87224532C83EC0B1
:101610002286B687A94616CAEFF0FFCAAA944244AA
:10162000A9B71301C1FD2EC832CAAA851008014509
:1016300006C636CC3ACE3ED032C0EFF01FC9B2401B
:10164000130141028280411122C426C206C61C2118
:10165000AA840144DC8183073100050499EFA9477E
:101660009305310005460145DC81EFF01F9D228581
:10167000B2402244924441018280054693053100E4
:101680000145EFF09F9BB38784009C23DC81E1B789
:10169000B307A040E98F416763F9E7021307F00F32
:1016A000FD56636AF700171700001307A798BA974B
:1016B000882336958280171700001307A797A18308
:1016C000BA9788239D46369582803707000163ECE0
:1016D000E700171700001307E795E183BA978823FF
:1016E000DD4636958280171700001307A794C18343
:1016F000BA978823BD4636958280370780007D17CC
:1017000041113373A70013D675019312330022C41D
:10171000135475011374F40F6D8F26C21376F60FF0
:101720009354F50116C006C6FD819A87A2862685C8
:1017300093133700B302C440638DB40E6351500C51
:10174000630706149307F00F630CF414B707000443
:10175000B3E3F300ED4763C7572893070002B3874D
:101760005740B397F300B3D25300B337F000B3E759
:10177000F2000247B307F74013975700635E07185C
:10178000370300047D13B3F767003E853EC0792719
:1017900082476D15B397A7006346851A018D05052D
:1017A000130300023303A340339367003333600015
:1017B000B3D7A700B3E76700014413F7770019C751
:1017C00013F7F70091466303D7009107139757006B
:1017D0006358071405041307F00F26856300E41609
:1017E0009A07A5839376F40FB2402244A607DE063B
:1017F000A5837E05DD8E9244558D410182806399DB
:10180000020A130614001376E60F63180614631613
:101810000422024663020620E38803FC0247B30762
:10182000774013965700635A0622B387E340AE848D
:1018300069B76359500A49CE9307F00F6302F40663
:10184000B7070004B3E3F300ED4763C457209307E1
:101850000002B3875740B397F300B3D25300B337B6
:10186000F000B3E7F2000247BA97139757006355A9
:10187000070A05041307F00F6302E40CB706007EA5
:1018800013D71700FD16858B758FD98F3DB7638BE6
:101890000308FD12638702189307F00FE31CF4EAB4
:1018A000630D030801459306F00FB70740002DBFF5
:1018B000B307864065EC824663850614FD17638393
:1018C000071A9306F00F631CD60EAE843A83C9BF85
:1018D000638A0304FD12638302129307F00FE3157A
:1018E000F4F67DBF6398020805041376E40F631EC7
:1018F0000612639C06100246630B0616E38603EE8F
:10190000B307760013975700014463570700370762
:1019100000FC7D17F98F054413F77700E31207EAFF
:1019200013D337009307F00FE30CF4F693179300EB
:10193000A5839376F40F268545BD26859306F00F83
:1019400081475DB5370300FC7D13B3F7670013F7DC
:101950007700098CE31607E6E1B78247B387774043
:10196000139757006342070EE39107E20145814652
:1019700081479DBDB307864025E88246FDCAFD1715
:10198000F5CF9306F00FE303D6F46D476346F70EE9
:101990008246130700021D8F3397E600B3D7F60087
:1019A0003337E000D98F9E973284C1B59306F00F8C
:1019B000E30DD6F0824637070004558F3AC06D47D5
:1019C000634BF7088246130700021D8F3397E6002A
:1019D000B3D7F6003337E000D98FB387F3403284B2
:1019E000AE8459BB854771B39306F00FE300D6EE82
:1019F000824637070004558F3AC041BF82479E9701
:101A0000ADB53A833284AE8431BF93173300E38F90
:101A100007EAE38703E879B5638303042E85BA8771
:101A2000E1B38247B387774081BB9307F00FE307A9
:101A3000F4F082479E978583C5B593173300F1FB79
:101A4000E38203E6AE8459B58247AE84B387F340A0
:101A50002DBB854709BD854749B7E39F07EA014587
:101A6000814759B3B387D3403284AE8431B3BA8748
:101A7000A5BB3A8332847DB5854735B7B3877600F9
:101A80003284E5B313567501B7078000FD1713D7ED
:101A900075011376F60F1303F00FB3F2A7009356F8
:101AA000F501ED8F1377F70FFD8163076602630978
:101AB000670005EA11EB89EB0145639B0200828018
:101AC0000945F5FF65DA31A8638C02026380B6042C
:101AD0000545F5D67D558280094563980202630469
:101AE000C70211E3F5D7E395B6FEE343C7FE6347AC
:101AF000E600E3EF57FC0145E3F3F2FC99E2D9BFBE
:101B0000F1D905458280E5D3828082800146C5B740
:101B1000011122CC1354750126CA06CE93149500E8
:101B20001374F40FA5809356F5014DCC9307F00F75
:101B3000630CF40CB70700048E04DD8C130414F856
:101B40008147014613D57501139795001375F50F5D
:101B50002583FD814DC51303F00F630D65020E074C
:101B6000130515F837030004336767002A9481438F
:101B70001305140033C3B6002AC03D459A82636240
:101B8000F510170500001305E5468A07AA979C4340
:101B90003E9502851304F40F61EB93E72700894318
:101BA000C1BF01431307F00FB7074000F240624482
:101BB000A6075E07A5831315F301D98FD2445D8D67
:101BC00005618280AE82BA841E8689476306F60A62
:101BD0008D47E308F6FC85471683631EF61A014716
:101BE0008147E9B7B5E013D57501139795001375D3
:101BF000F50F9147014405462583FD8129FD19EB29
:101C000093E717008543ADB79DE8A1471304F00F94
:101C100009460DBF3A8532C83EC62EC436C23AC008
:101C2000F52C02471303B5FF098C33176700130423
:101C3000A4F881439246A245B247424615BFB14738
:101C40001304F00F0D46FDBD26852EC236C0F924C3
:101C50009307B5FF1304A0F8B394F400098C8147EF
:101C6000014682469245F9BD93E737008D4309B797
:101C70008947B682E31EF6F416831307F00F8147F7
:101C800035B7C167FD17B3F3F400F98FC180418305
:101C90001E85BE85EFE00FC2AA82BA851E85EFE0E1
:101CA0006FC1AA83BE852685EFE0CFC0AA87BA851B
:101CB0002685EFE02FC013D70201BE93BA9363F4D9
:101CC000F300C1673E95C167FD17B3F4F300C2048A
:101CD000B3F2F200A6929394620093D30301B3345B
:101CE000900093D2A201AA93B3E2540093946300AC
:101CF000B3E454009397440063D70700024493D79A
:101D000014008588DD8C1307F407635FE00293F706
:101D1000740099C793F7F40091466383D700910448
:101D20009397440063D80700B70700F8FD17FD8CB0
:101D3000130704089307E00F63CBE704939764004D
:101D4000A5831377F70F9DB58547B386E74011C785
:101D50006D4601478147E34BD6E41304E40933940D
:101D60008400B3D7D400B3348000C58F13F7770055
:101D700019C713F7F70091466303D700910713972C
:101D80005700634C07009A07A583014705B5130761
:101D9000F00F814721BD0244BDB70547814739B5E2
:101DA00037068000935775011307F6FF93F7F70F77
:101DB0009305E007698F9356F50163FCF5009305E1
:101DC000D00963FAF500370500801345F5FF369515
:101DD00082800145828093055009518F63CDF500C3
:101DE00013066009B307F640B357F7003305F04018
:101DF000F5F23E8582809387A7F6B317F700FDB70B
:101E000013577501370680009307F6FF1377F70F16
:101E10009305E007B3F6A7009357F501014563F476
:101E2000E50099C3828082809307E0097D55E3EB4A
:101E3000E7FE93055009B3E7C60063D7E500130733
:101E4000A7F63395E7008280130560093307E54064
:101E500033D5E7008280511106C422C226C00DCDC1
:101E60009357F54133C4A7001D8CAA8422857D2099
:101E70009307E0093387A74093076009FD8063CC8F
:101E8000E702A1469377F70F63D5A60061153314D7
:101E9000A4002604258021A0814481470144260412
:101EA00013559400A2401244DE07FE045D8D458D5B
:101EB0008244310182809307900963DDE700930734
:101EC000B5019546B317F400898EB356D400333468
:101ED000F000558C954763D6A7009307B5FF3314E0
:101EE000F400B70600FCFD16937774003376D40037
:101EF00085C39377F4009145638CB700110693175F
:101F0000560063D707009307F009758E3387A74003
:101F10001314660025809377F70F51B7C167637C70
:101F2000F5029307F00F1307000263EBA700970772
:101F3000000093872710AA9788233305A740828043
:101F40002181970700009387E70EAA9788236147AE
:101F50003305A7408280B7070001636DF5006181FA
:101F6000970700009387070DAA9788232147330519
:101F7000A74082804181970700009387A70BAA970B
:101F8000882341473305A740828000000000803D40
:101F90000000C8420000A04053746172746564215F
:101FA0000D00000054656D703A202D25642E2530FB
:101FB0003264206F430A0D0054656D703A20256429
:101FC0002E25303264206F430A0D00003F305B79CC
:101FD000746D6F387F7D004008015C2318214373C6
:101FE0004F4E76075E000000286E756C6C2900006D
:101FF00092FCFFFFD6FBFFFFD6FBFFFFD4FBFFFFEA
:10200000DAFBFFFFDAFBFFFFB2FBFFFFD4FBFFFFB2
:10201000DAFBFFFFB2FBFFFFDAFBFFFFD4FBFFFFA2
:1020200080FCFFFF80FCFFFF80FCFFFFB2FBFFFF97
:10203000000102020303030304040404040404046F
:102040000505050505050505050505050505050540
:102050000606060606060606060606060606060620
:102060000606060606060606060606060606060610
:1020700007070707070707070707070707070707F0
:1020800007070707070707070707070707070707E0
:1020900007070707070707070707070707070707D0
:1020A00007070707070707070707070707070707C0
:1020B00008080808080808080808080808080808A0
:1020C0000808080808080808080808080808080890
:1020D0000808080808080808080808080808080880
:1020E0000808080808080808080808080808080870
:1020F0000808080808080808080808080808080860
:10210000080808080808080808080808080808084F
:10211000080808080808080808080808080808083F
:10212000080808080808080808080808080808082F
:1021300000366E010204060804080C10081018206E
:10214000102030402040608001020304050607088B
:08215000010203040506070863
:00000001FF
