:100000006F004070000000000C0500000E050000AD
:1000100000000000000000000000000000000000E0
:1000200000000000000000000000000000000000D0
:1000300002070000000000000207000000000000AE
:10004000020700000207000002070000020700008C
:10005000020700000207000002070000020700007C
:10006000020700000207000002070000020700006C
:10007000020700000207000002070000020700005C
:10008000020700000207000002070000020700004C
:100090000207000002070000020700000000000045
:1000A000511126C022C206C4828282441244A24058
:1000B000310182802A86014593F6150091C232955E
:1000C00085810606F5F9828000000000634E050276
:1000D00063C305042E86AA857D5515C285466378BF
:1000E000B6006356C00006068606E36CB6FE014500
:1000F00063E4C500918D558D85820582F5FA828075
:100100008682C93F2E8582823305A04063D70500D1
:10011000B305B040C1B7B305B0408682653F330533
:10012000A0408282868263C70500634905005D376F
:100130002E858282B305B040E35B05FE3305A04007
:10014000513F3305B04082820000EFF27FF5370463
:10015000002013058400B922130584009305C00C08
:10016000F92A9305400413058400D12A3DBF8280FB
:10017000EFF21FF3370400207111AA8413058400E5
:100180001522130584009305C00C552A9305E00B36
:10019000130584006D2213058400E9222AC013058B
:1001A0008400C922824722055D8D42054185EF000A
:1001B0001067B717000083A54715EF00F03788C018
:1001C00005451101DDB5EFF2BFED37040020AA842B
:1001D00013058400C128130584009305C00C8522F3
:1001E000130584009305E004992A130584008145D2
:1001F000B922130584008145992293F5F40F130564
:100200008400352A5DB5EFF2BFE92A84B7150140B5
:1002100037050020114693850580130585008D2A3A
:100220002285553759B5EFF2BFE751112A8485452C
:10023000414502C002C202C4EF00406291473EC481
:100240008D473EC208405E208A857C80EF00805644
:100250003101A1BDEFF2DFE451112A848545130578
:10026000000202C002C202C4EF00405FC1473EC4A8
:100270008D473EC208405E208A857C80EF00805317
:10028000310125B5EFF2DFE14E2108410146EF00D3
:10029000C05A21BDEFF2DFE04E2108410546EF00D4
:1002A000C05921B5EFF2DFDF2A84E93F22855D37AF
:1002B0001305001EEF00A05F2285B537130560040B
:1002C000EF00E05E4E200840EF0080562A841305C0
:1002D000A019EF00C05D2285C9BBEFF27FDC2A8444
:1002E00091CD4D372285BD371945EF00405C228501
:1002F0001D3F13050004EF00805B45BB613722857D
:10030000913F1305C003EF00805A2285293F2945FC
:10031000DDB7EFF2FFD82A84B5372285253F09459E
:10032000792322850937294559234E20084009237E
:100330002A8413052003A52B33358000BDB3EFF2CB
:100340003FD67111AA87AE84214493F514003E85EF
:100350007D143EC01374F40F49378580824775F4CD
:100360001101A1B3EFF2DFD37111AA87A1440144B7
:100370003E853EC0793F1E050580FD14498C93F4EF
:10038000F40F1374F40F8247E5F42285110131BB99
:10039000EFF21FD10CC152A12A846D3D2285DD3DB3
:1003A0001305400691232285F13D130540062D2BB0
:1003B0002285CD351305800C052BC5B9711102C0FE
:1003C0001307100382476354F700110182808247AC
:1003D00085073EC0C5BFEFF2BFCC05469145371536
:1003E0000140A1290546894537150140B921F93752
:1003F0000146914537150140892145B9EFF25FCAA1
:1004000001468945371501400D294D3F014691456B
:10041000371501401D215D370546894537150140D7
:100420002929693F05469145371501403921B5B95C
:10043000EFF21FC7AA8421440146894537150140C0
:10044000ED2E13F61400914537150140FD267D145D
:10045000B53705468945371501401374F40FF12E61
:100460008580A93F71F80146894537150140F1267D
:10047000B1370546914537150140C12681370546FC
:10048000894537150140552E153F05B1EFF25FC183
:1004900051118545414502C002C202C4C126994797
:1004A0007C80C1473EC48A858547371501403EC2DE
:1004B00011263101DDBEEFF2BFBE71112AC0213F0E
:1004C00002451D8913658508A5370D3F1101F1BE51
:1004D000EFF21FBDF547AA84014463E7B7008567C3
:1004E00093878715AE97802319C213640408E535F6
:1004F00013054004353F1937F93D138504FC137586
:10050000F50F3D3722852D37D53D45B601A0B707FC
:10051000EFBE37E700E0938707083CC701A0EFF282
:100520003FB851118545114502C002C202C43D26A3
:100530008545414525269147371501400D447C806E
:100540008A85D147130505803EC422C2A524C14730
:100550007C808A85C147371501403EC422C2992C50
:100560003101A1B6EFF2DFB351110545E12C31267F
:100570007D37293F0D458137B7070304938717203F
:100580001305F0073EC24131B717000083A7471794
:1005900081443EC0E93E37140140054691451305AC
:1005A0000480612C5D361305048001469145712459
:1005B00028007D3E11CD2244930500008144228510
:1005C000F5256357050037050080218D2AC4854431
:1005D0001305803E112E03C741819387418159CB7A
:1005E00001470146C1453715014098A3B92482450A
:1005F0002245EF006074B717000083A58717152602
:10060000EF00901C1314050141809305803E228564
:10061000EFF05FAC4882930540062285EFF09FAB78
:100620004205A9454181EFF0BFADC882A9452285A9
:10063000EFF05FAA4205A9454181EFF07FAC488306
:100640009307703E63E48700A9475C82B94791C075
:10065000AD47DC8301445C00A2978C231306F4FFB2
:100660001375F40F13361600A53505049147E314EE
:10067000F4FE0DB705470546B5B7EFF27FA2371474
:1006800002401C403707FFF8414593E717001CC0A4
:100690005C40F98F5CC01C403707F7FE7D17F98F6F
:1006A0001CC01C403707FCFF7D17F98F1CC05C4045
:1006B00041777D17F98F5CC0B7079F001CC471227A
:1006C0001C4C93E707021CCCB717014003A7074057
:1006D000938607401377F7F023A0E74003A707406E
:1006E0001367070823A0E74089479CCAB727024041
:1006F0009843719B98C3984398C35C405CC06FF06B
:10070000DF9A01A09701002093814110138181FF9E
:100710001305000A970500209385C58E1706002053
:100720001306468E63FAC5008322050023A05500F8
:1007300011059105E3EAC5FE17150000130545B83C
:10074000970500209385058C170600201306068C5C
:1007500063FAC5008322050023A055001105910509
:10076000E3EAC5FE170500201305458A938501823B
:100770006377B500232005001105E36DB5FEB722B0
:10078000000093820288739002308D427390428001
:10079000970200009382028793E2320073905230F6
:1007A000EFF0BFED97020000938202DC73901234E9
:1007B00073002030944593F7060193F2F60081C749
:1007C000DC41B3E2F20083D3050093F7F30FA5C336
:1007D00003230500611122C226C081471304800251
:1007E0009304800405473316F70033F7C300631200
:1007F000E602939527003D473317B7001347F7FFED
:1008000033736700B395B20033E36500639D8600E0
:1008100050C985072147E397E7FC12442320650070
:10082000824421018280E39696FE10C9DDB7828062
:1008300008456D8D3335A000828019C20CC98280B5
:100840004CC9828023ACA1808280371702401C43B0
:100850000E0593F777F05D8D08C3828099C5371731
:1008600002401C4F5D8D08CF8280B7170240984F21
:100870001345F5FF798D88CF8280EFF27F82B7072D
:10088000002003A50700B7157A0093850520EFF037
:100890007F841375F50F238FA18093175500898FDF
:1008A0008A073E950E05239EA1806FF01F80EFF210
:1008B0002FFF37F400E05C40AA85F99B5CC003C5BC
:1008C000E181EFF02FFF08C8232404001C4093E7C8
:1008D00017001CC0B7F700E0D843058B75DF9843BD
:1008E000799B98C36FF06FFCEFF28FFB37F400E059
:1008F0005C40AA85F99B5CC003D5C181EFF08FFBFA
:1009000008C8232404001C4093E717001CC0B7F755
:1009100000E0D843058B75DF9843799B98C36FF04F
:10092000CFF8370780007D1741113373A70013D626
:1009300075019312330022C4135475011374F40F1C
:100940006D8F26C21376F60F9354F50116C006C6B6
:10095000FD819A87A286268593133700B302C4408F
:10096000638DB40E6351500C630706149307F00FA8
:10097000630CF414B7070004B3E3F300ED4763C757
:10098000572893070002B3875740B397F300B3D2B9
:100990005300B337F000B3E7F2000247B307F74064
:1009A00013975700635E0718370300047D13B3F7EE
:1009B00067003E853EC03D2782476D15B397A7006F
:1009C0006346851A018D0505130300023303A34016
:1009D0003393670033336000B3D7A700B3E76700F2
:1009E000014413F7770019C713F7F7009146630323
:1009F000D70091071397570063580714050413078E
:100A0000F00F26856300E4169A07A5839376F40F0A
:100A1000B2402244A607DE06A5837E05DD8E924401
:100A2000558D410182806399020A130614001376E2
:100A3000E60F6318061463160422024663020620BA
:100A4000E38803FC0247B307774013965700635AC5
:100A50000622B387E340AE8469B76359500A49CE92
:100A60009307F00F6302F406B7070004B3E3F30043
:100A7000ED4763C4572093070002B3875740B397ED
:100A8000F300B3D25300B337F000B3E7F2000247EC
:100A9000BA97139757006355070A05041307F00F19
:100AA0006302E40CB706007E13D71700FD16858B92
:100AB000758FD98F3DB7638B0308FD1263870218CA
:100AC0009307F00FE31CF4EA630D03080145930656
:100AD000F00FB70740002DBFB307864065EC824694
:100AE00063850614FD176383071A9306F00F631CD2
:100AF000D60EAE843A83C9BF638A0304FD126383B2
:100B000002129307F00FE315F4F67DBF6398020815
:100B100005041376E40F631E0612639C061002465A
:100B2000630B0616E38603EEB307760013975700B0
:100B3000014463570700370700FC7D17F98F054410
:100B400013F77700E31207EA13D337009307F00F88
:100B5000E30CF4F693179300A5839376F40F2685A0
:100B600045BD26859306F00F81475DB5370300FC30
:100B70007D13B3F7670013F77700098CE31607E6D8
:100B8000E1B78247B3877740139757006342070E58
:100B9000E39107E20145814681479DBDB307864049
:100BA00025E88246FDCAFD17F5CF9306F00FE30353
:100BB000D6F46D476346F70E8246130700021D8F79
:100BC0003397E600B3D7F6003337E000D98F9E970E
:100BD0003284C1B59306F00FE30DD6F08246370795
:100BE0000004558F3AC06D47634BF70882461307E0
:100BF00000021D8F3397E600B3D7F6003337E000CD
:100C0000D98FB387F3403284AE8459BB854771B323
:100C10009306F00FE300D6EE824637070004558FA7
:100C20003AC041BF82479E97ADB53A833284AE84C5
:100C300031BF93173300E38F07EAE38703E879B501
:100C4000638303042E85BA87E1B38247B387774075
:100C500081BB9307F00FE307F4F082479E978583EB
:100C6000C5B593173300F1FBE38203E6AE8459B5B3
:100C70008247AE84B387F3402DBB854709BD8547C6
:100C800049B7E39F07EA0145814759B3B387D3408A
:100C90003284AE8431B3BA87A5BB3A8332847DB542
:100CA000854735B7B38776003284E5B313567501AF
:100CB000B7078000FD1713D775011376F60F1303DE
:100CC000F00FB3F2A7009356F501ED8F1377F70FEE
:100CD000FD81630766026309670005EA11EB89EB92
:100CE0000145639B020082800945F5FF65DA31A862
:100CF000638C02026380B6040545F5D67D5582807B
:100D00000945639802026304C70211E3F5D7E3952E
:100D1000B6FEE343C7FE6347E600E3EF57FC014539
:100D2000E3F3F2FC99E2D9BFF1D905458280E5D31E
:100D3000828082800146C5B7011122CC135475010F
:100D400026CA06CE931495001374F40FA58093560B
:100D5000F5014DCC9307F00F630CF40CB7070004BA
:100D60008E04DD8C130414F88147014613D57501F8
:100D7000139795001375F50F2583FD814DC513035A
:100D8000F00F630D65020E07130515F83703000415
:100D9000336767002A9481431305140033C3B600F8
:100DA0002AC03D459A826362F510170500001305BD
:100DB000253D8A07AA979C433E9502851304F40FAC
:100DC00061EB93E727008943C1BF01431307F00F8D
:100DD000B7074000F2406244A6075E07A5831315DB
:100DE000F301D98FD2445D8D05618280AE82BA84D1
:100DF0001E8689476306F60A8D47E308F6FC854799
:100E00001683631EF61A01478147E9B7B5E013D58B
:100E10007501139795001375F50F91470144054629
:100E20002583FD8129FD19EB93E717008543ADB7B5
:100E30009DE8A1471304F00F09460DBF3A8532C85B
:100E40003EC62EC436C23AC0712C02471303B5FF0A
:100E5000098C331767001304A4F881439246A24516
:100E6000B247424615BFB1471304F00F0D46FDBD12
:100E700026852EC236C0BD249307B5FF1304A0F803
:100E8000B394F400098C8147014682469245F9BD2E
:100E900093E737008D4309B78947B682E31EF6F41E
:100EA00016831307F00F814735B7C167FD17B3F3FA
:100EB000F400F98FC18041831E85BE85EFF08F9FBE
:100EC000AA82BA851E85EFF0EF9EAA83BE8526858D
:100ED000EFF04F9EAA87BA852685EFF0AF9D13D716
:100EE0000201BE93BA9363F4F300C1673E95C167F4
:100EF000FD17B3F4F300C204B3F2F200A692939488
:100F0000620093D30301B334900093D2A201AA9359
:100F1000B3E2540093946300B3E454009397440005
:100F200063D70700024493D714008588DD8C13072C
:100F3000F407635FE00293F7740099C793F7F40036
:100F400091466383D70091049397440063D80700C8
:100F5000B70700F8FD17FD8C130704089307E00F8F
:100F600063CBE70493976400A5831377F70F9DB5D0
:100F70008547B386E74011C76D4601478147E34B7C
:100F8000D6E41304E40933948400B3D7D400B33413
:100F90008000C58F13F7770019C713F7F700914644
:100FA0006303D700910713975700634C07009A0714
:100FB000A583014705B51307F00F814721BD024402
:100FC000BDB70547814739B513577501370680000E
:100FD0009307F6FF1377F70F9305E007B3F6A70023
:100FE0009357F501014563F4E50099C3828082803F
:100FF0009307E0097D55E3EBE7FE93055009B3E75E
:10100000C60063D7E5001307A7F63395E700828093
:10101000130560093307E54033D5E700828051119D
:1010200006C422C226C00DCD9357F54133C4A70094
:101030001D8CAA8422857D209307E0093387A74071
:1010400093076009FD8063CCE702A1469377F70F11
:1010500063D5A60061153314A4002604258021A0C1
:10106000814481470144260413559400A240124450
:10107000DE07FE045D8D458D824431018280930739
:10108000900963DDE7009307B5019546B317F400B7
:10109000898EB356D4003334F000558C954763D60F
:1010A000A7009307B5FF3314F400B70600FCFD1644
:1010B000937774003376D40085C39377F400914519
:1010C000638CB70011069317560063D70700930788
:1010D000F009758E3387A740131466002580937737
:1010E000F70F51B7C167637CF5029307F00F130741
:1010F000000263EBA700970700009387670CAA978D
:1011000088233305A74082802181970700009387B9
:10111000270BAA97882361473305A7408280B7072A
:101120000001636DF500618197070000938747090F
:10113000AA97882321473305A740828041819707DA
:1011400000009387E707AA97882341473305A74004
:10115000828000000000803D3F065B4F666D7D078A
:101160007F6F00400108631C777C395E79716350A2
:10117000370000000000C8420000A0402EFDFFFF25
:1011800072FCFFFF72FCFFFF70FCFFFF76FCFFFFAD
:1011900076FCFFFF4EFCFFFF70FCFFFF76FCFFFFBD
:1011A0004EFCFFFF76FCFFFF70FCFFFF1CFDFFFF06
:1011B0001CFDFFFF1CFDFFFF4EFCFFFF00010202B4
:1011C00003030303040404040404040405050505DF
:1011D00005050505050505050505050506060606BB
:1011E000060606060606060606060606060606069F
:1011F000060606060606060606060606070707078B
:10120000070707070707070707070707070707076E
:10121000070707070707070707070707070707075E
:10122000070707070707070707070707070707074E
:10123000070707070707070707070707080808083A
:10124000080808080808080808080808080808081E
:10125000080808080808080808080808080808080E
:1012600008080808080808080808080808080808FE
:1012700008080808080808080808080808080808EE
:1012800008080808080808080808080808080808DE
:1012900008080808080808080808080808080808CE
:1012A00008080808080808080808080808080808BE
:0C12B000080808080808080808080808D2
:0812BC0000366E010000000085
:00000001FF
