:100000006F00607800000000180500001A0500006D
:1000100000000000000000000000000000000000E0
:1000200000000000000000000000000000000000D0
:1000300084070000000000008407000000000000AA
:100040008407000084070000840700008407000084
:100050008407000084070000840700008407000074
:100060008407000084070000840700008407000064
:100070008407000084070000840700008407000054
:100080008407000084070000840700008407000044
:1000900084070000840700008407000000000000BF
:1000A000511126C022C206C4828282441244A24058
:1000B000310182802A86014593F6150091C232955E
:1000C00085810606F5F9828000000000634E050276
:1000D00063C305042E86AA857D5515C285466378BF
:1000E000B6006356C00006068606E36CB6FE014500
:1000F00063E4C500918D558D85820582F5FA828075
:100100008682C93F2E8582823305A04063D70500D1
:10011000B305B040C1B7B305B0408682653F330533
:10012000A0408282868263C70500634905005D376F
:100130002E858282B305B040E35B05FE3305A04007
:10014000513F3305B04082820000EFF27FF5370463
:10015000002013058402B922130584029305C00C04
:10016000D5229305400413058402E92A3DBF82800D
:10017000EFF21FF3370400207111AA8413058402E3
:100180001522130584029305C00C6D2A9305E00B1C
:1001900013058402452A13058402C12A2AC01305C7
:1001A0008402E122824722055D8D42054185EF10E0
:1001B000F005B727000083A507B4EF10C05088C032
:1001C00005451101DDB5EFF2BFED37040020AA842B
:1001D00013058402C128130584029305C00C9D22D7
:1001E000130584029305E004B12A130584028145B6
:1001F000912A130584028145B12293F5F40F13056A
:10020000840289225DB5EFF2BFE92A84B715014067
:100210003705002011469385058013058502A52A20
:100220002285553759B5EFF2BFE751112A8485452C
:10023000414502C002C202C4EF00D00091473EC453
:100240008D473EC208405E208A857C80EF00A05E1C
:100250003101A1BDEFF2DFE451112A848545130578
:10026000000202C002C202C4EF00C07DC1473EC40A
:100270008D473EC208405E208A857C80EF00A05BEF
:10028000310125B5EFF2DFE14E2108410146EF00D3
:10029000E06221BDEFF2DFE04E2108410546EF00AC
:1002A000E06121B5EFF2DFDF2A84E93F22855D3787
:1002B0001305001EEF00700D2285B537130560048D
:1002C000EF00B00C4E200840EF00A05E2A8413051A
:1002D000A019EF00900B2285C9BBEFF27FDC2A84C6
:1002E00091CD4D372285BD371945EF00100A228583
:1002F0001D3F13050004EF00500945BB61372285FF
:10030000913F1305C003EF0050082285293F29457E
:10031000DDB7EFF2FFD82A84B5372285253F09459E
:10032000EF00B006228501372945EF0010064E2068
:10033000084041232A8413052003EF0010053335BC
:100340008000A5B3EFF2DFD57111AA87AE842144F6
:1003500093F514003E857D143EC01374F40FB53F31
:100360008580824775F4110189B3EFF27FD3711153
:10037000AA87A14401443E853EC0613F1E05058019
:10038000FD14498C93F4F40F1374F40F8247E5F4D1
:100390002285110119BBEFF2BFD00CC152A12A84F2
:1003A000553D2285C53D13054006EF00B00122856D
:1003B000D13D13054006EF00F0002285E13D130515
:1003C000800CEF003000D5B1711102C0130710038B
:1003D00082476354F70011018280824785073EC03F
:1003E000C5BFEFF2FFCB0546914537150140F92116
:1003F0000546894537150140D121F9370146914518
:1004000037150140652955B1EFF29FC9014689456D
:100410003715014065214D3F014691453715014093
:1004200071295D3705468945371501404129693FE6
:100430000546914537150140512185B9EFF25FC658
:10044000AA8421440146894537150140852913F6C0
:10045000140091453715014095217D14B5370546A7
:100460008945371501401374F40F89298580A93F08
:1004700071F801468945371501408921B137054694
:100480009145371501401D298137054689453715A6
:1004900001402D21153F11B9EFF29FC05111854543
:1004A000414502C002C202C4712B99477C80C147FA
:1004B0003EC48A858547371501403EC2AD2E3101C5
:1004C000EDB6EFF2FFBD71112AC0213F02451D8933
:1004D00013658508A5370D3F1101C1BEEFF25FBC62
:1004E000F547AA84014463E7B7008967938747B457
:1004F000AE97802319C213640408E5351305400440
:10050000353F1937F93D138504FC1375F50F3D3759
:1005100022852D37D53D51BE01A0B707EFBE37E785
:1005200000E0938707083CC701A0EFF27FB75111A5
:100530008545114502C002C202C4292385454145B3
:1005400011239147371501400D447C808A85D1479E
:10055000130505803EC422C2F92CC1477C808A85E0
:10056000C147371501403EC422C2F124310135BED6
:10057000EFF21FB3411105450929F12B71651305F0
:100580000520B52D5D37093F0D45253FB70703040D
:10059000938717201305F0073EC4B53137250000B7
:1005A000130585B6EF00304CB727000083A747B688
:1005B00081443EC06D3E371401401305048005465A
:1005C0009145ED2C59361305048001469145FD24D3
:1005D0006800793E3724000021C5B244930500002D
:1005E0002685EF108005635F050CB7070080832523
:1005F00004B6BD8C268526C6EF10E00CEF10A035A2
:100600009305400605362AC22685EF10C0341246EF
:10061000AA8537250000130545B7EF0090428544B1
:100620001305803E452303C74181938741816304BD
:10063000070C01470146C1453715014098A3BD2C61
:10064000832504B63245EF1000088245EF0050467E
:10065000EF1060361314050141809305803E22851A
:10066000EFF05FA74884930540062285EFF09FA630
:100670004205A9454181EFF0BFA8C884A94522855C
:10068000EFF05FA54205A9454181EFF07FA74885BE
:100690009307703E63E48700A9475C84B94791C023
:1006A000AD47DC8501443C00A2978C231306F4FF80
:1006B0001375F40F13361600153505049147E3142E
:1006C000F4FECDBD832504B62685EF00D07FEF1064
:1006D000802893054006EFF0FFA42AC22685EF107C
:1006E00080271246AA8537250000130585B8EF003C
:1006F0005035814435B70547054635BFEFF25F9A5F
:10070000371402401C403707FFF8414593E71700B4
:100710001CC05C40F98F5CC01C403707F7FE7D179A
:10072000F98F1CC01C403707FCFF7D17F98F1CC0D8
:100730005C4041777D17F98F5CC0B7079F001CC4F0
:10074000812C1C4C93E707021CCCB717014003A770
:100750000740938607401377F7F023A0E74003A7ED
:1007600007401367070823A0E74089479CCAB727BB
:1007700002409843719B98C3984398C35C405CC007
:100780006FF0BF9201A0970100209381210A13818D
:1007900081FD1305000A970500209385A58617069D
:1007A00000201306268663FAC5008322050023A0D5
:1007B000550011059105E3EAC5FE17150000130564
:1007C000A552970500209385E583170600201306A0
:1007D000E68563FAC5008322050023A055001105B4
:1007E0009105E3EAC5FE17050020130525849385CE
:1007F00001826377B500232005001105E36DB5FE86
:10080000B722000093820288739002308D42739069
:10081000428097F2FFFF9382E27E93E23200739070
:100820005230EFF0BFED970200009382A2D4739094
:10083000123473002030944593F7060193F2F600CA
:1008400081C7DC41B3E2F20083D3050093F7F30FD5
:10085000A5C303230500611122C226C081471304EA
:1008600080029304800405473316F70033F7C30072
:100870006312E602939527003D473317B7001347ED
:10088000F7FF33736700B395B20033E36500639DF0
:10089000860050C985072147E397E7FC12442320CF
:1008A0006500824421018280E39696FE10C9DDB77F
:1008B000828008456D8D3335A000828019C20CC935
:1008C00082804CC98280370301400327430093177D
:1008D000350063D00702B707C0FFF517F98F370758
:1008E0000007D98FD9CD370700F07D17798DC98FD3
:1008F00049A8635D0500B707E0FFED17F98F3707DB
:100900000007D98FBDCD06050581D5B7B7073000E3
:10091000931605013376F500C1826313F60237069C
:1009200000F97D16B377C70003274300798E232291
:10093000C300A1C95581131745003395E60045BF93
:100940009317B50063D407029357050113F6F70018
:100950008D47B397C70093C7F7FFF98F3707000795
:10096000D98F85C1135755011207C1BF5581120593
:100970003395A6009347F5FFF98F37070007D98F06
:10098000BDF5370701405CC3828023ACA180828023
:10099000371702401C430E0593F777F05D8D08C3AF
:1009A0008280EFF2EFEF371702405C4391462A84D2
:1009B000B18B6385D700A1466380D708B7376E0136
:1009C000938707601CC0B7160240DC42918313F77F
:1009D000F700B707002093878701BA978C23DC4282
:1009E000184093F5F50F93F707083355B70081E7E3
:1009F0003A85EFF02FEE48C008C448C4B71702404C
:100A0000DC438D46AD83FD8B13D737008A07F18B0E
:100A1000D98F13F6370113F7370063F4C600138735
:100A200047FFB707002093874700BA978C23EFF062
:100A30006FEA08C86FF06FE75C43B777DC02938713
:100A400007C049B799C5371702401C4F5D8D08CFC5
:100A50008280B7170240984F1345F5FF798D88CFF4
:100A60008280EFF2EFE31629F577FD17F58FF62177
:100A7000DA252111D58F1EA95625FD779387379F3B
:100A8000F58FD6212A842EC0D58F9625D58FB625F1
:100A9000D58F5EA55E29C207C18393F7F7CF5D8F1F
:100AA0005AA94800FD3DB74701409387078082451A
:100AB0006312F406C2475A24139517003E95420765
:100AC0000E0541873E958C41635807048605EFF07B
:100AD0006FE0930540062AC0EFF0CFDF8247931402
:100AE0004500930540063E85EFF08FE15E24C20786
:100AF000C18763D507020E0593054006130525033C
:100B0000EFF04FDD1D89C98CC204C18006A46101CC
:100B10006FF0AFD9B24745B78A0555BF12059305A7
:100B2000400613052503EFF0EFDA3D89E9BF91C5D3
:100B30005E250967D98F5EA582805A25F977FD1752
:100B4000F98FD5BF93F5F51F4EA182800A216D8DD7
:100B50003335A0008280EFF2AFD4B707002003A5A1
:100B60000700B7157A0093850520EFF0AFD613750F
:100B7000F50F238FA18093175500898F8A073E9523
:100B80000E05239EA1806FF04FD2EFF26FD137F4A4
:100B900000E05C40AA85F99B5CC003C5E181EFF0F1
:100BA0006FD108C8232404001C4093E717001CC021
:100BB000B7F700E0D843058B75DF9843799B98C35E
:100BC0006FF0AFCEEFF2CFCD37F400E05C40AA85F6
:100BD000F99B5CC003D5C181EFF0CFCD08C82324B9
:100BE00004001C4093E717001CC0B7F700E0D8438F
:100BF000058B75DF9843799B98C36FF00FCBEFF2AD
:100C00002FCA2A84116511118545130515021D3D52
:100C10008545370520804539930700047C803715CA
:100C200001408D473EC28A85E147130505403EC419
:100C3000EFF07FC022C637440140B70708006C00C0
:100C4000130504803ECA02C8231C0100193D8545D6
:100C500013050480E93D71016FF02FC5EFF24FC419
:100C60007111AE840144635DC402B747014013872C
:100C700007803A859305000432C0C93DB74701405B
:100C800013870780024675D53387840083050700E4
:100C9000138507800504C205C1816D350246E1B7A1
:100CA000328511016FF06FC0411106C62EC00DCD07
:100CB0001841AA8705C358417D5511CB8546631B52
:100CC000D70098472300070023A207000545B2403C
:100CD000410182809847824614A39847050798C728
:100CE000D8437D17D8C3DDB705468A85853FF9BF50
:100CF000011122CC2EC206CE26CA2A848147930532
:100D00000002634506029245BE95838505008DE588
:100D100063D8C70263D4E702198E1305000293F566
:100D200026002AC089C501E7930500032EC0858AE5
:100D3000814495EAB2840DA08507F1B71D8EF1BFFD
:100D40000146E1BF824522853AC832C63EC4A93F6A
:100D5000A24732464247FD14E34690FEB2846353F5
:100D600006008144058E63C7E702A6879246338753
:100D7000974036978305070095EDB284634490044D
:100D8000635306000146F2406244D2443305F60044
:100D9000056182801D8FBA8793050003228532C8C2
:100DA0003EC63AC41137B24722474246FD17EDF717
:100DB000BA9465BF228532C63EC4FD35A24732468D
:100DC00085076DB78245228532C43EC2F13DFD14D0
:100DD0002246924765B7397106DE22DC26DA3EC22A
:100DE00032833A8689ED92469307000301476C08E7
:100DF000FC86FD3DF2506254D25421618280AA8467
:100E00003684AE8791CA294701446317E30063D54E
:100E10000500B307B04005448646A3090102130745
:100E20003103938666FC36C49A853E8532CA3AC839
:100E30001AC63EC0EFF0CFACA546824732434247C8
:100E4000524663D4A600A2463695130505039306C1
:100E5000F7FFA30FA7FE9A853E8532CC3ACA1AC87F
:100E60003EC636C0EFF00FA7B24742435247624634
:100E700063F9670401CC29CA9247898BB1C79305EE
:100E8000D002268532C40D3522467D169247918BBD
:100E900095C306479307100632C4930500032685C1
:100EA000631EF7021135930580072685F53B224620
:100EB000090479161647924682452685153D2295E6
:100EC00015BFAA8702478DB782469307D002014417
:100ED000A38FF6FE9307E7FF3EC04DBFF1339305A6
:100EE0008005E1B70145828001458280130181FDC3
:100EF00022D026CE06D22AC4AE82328402C68144D3
:100F00008385020089EDA24781C781453E85693B03
:100F1000925002542685F244130181028280930785
:100F200050026388F500224516C88504B53BC242CD
:100F300039A88387120013871200639CB7002245EB
:100F4000930550023AC88D3342478504BA82850220
:100F500045BFD5DB9306B0026389D70463C8F600AA
:100F6000930630026386D704814705A09306D0021A
:100F7000638AD70093060003E398D7FE1387220005
:100F8000894721A01387220085478306070013069F
:100F9000B0026383C6046341D60213063002638B3A
:100FA000C602BA820145A54681A0138722006DBF03
:100FB000138722009147D1BF1306D0026389C60070
:100FC00013060003E39FC6FC93E7270031A0050743
:100FD0008547C1BF93E747000507E1B71316250012
:100FE000329506053A95850203860200130706FD31
:100FF0009375F70FE3F4B6FE1307E0029946631EFC
:10100000E60085028146A54503860200130606FD1B
:101010001377F60F63F5E50236C603870200130661
:10102000A006630DC70A6343E6021306C004630704
:10103000C70A13068006630CC70881452DA81397BD
:101040002600BA968606B29685027DBF1306400733
:101050006306C7081306A0076302C7081306C00685
:101060008145631AC700038612008D456314E600AC
:10107000850291458502038602009303000613074B
:10108000100663C4C300130710049303700663C4FF
:10109000C30693035006635576189303700463C127
:1010A000C30493055004635DB61613073004E310C0
:1010B000E6EA18409303440016CA230CE1001EC858
:1010C000A30C01000147BE862A862C0849A8038686
:1010D00012008145E311E6FA890271BF8502B1BFB2
:1010E00093063006E307D6FC63CFC6069306800559
:1010F0006303D602A9BD930630076304D60463CB0D
:10110000C6029306F0066304D60E9306000793E723
:101110004700E31ED6E291466391D50C9303840009
:101120000C40504016CA3AC23EC01EC8AA870147AA
:10113000C14681A893065007630AD6069306800726
:1011400045BF1840B7260000930344009385C6B9F5
:1011500011C3BA85324716CA1EC8BE862A862245E2
:10116000EFF01FB90DA091466394D502930384005C
:101170000C40504016CA3AC23EC01EC8AA87054756
:10118000A94622458533C243AA941E84D242C1B3E4
:10119000B2460C4016C836C23AC011042A878546AA
:1011A00029462245EFF03FC3AA9451B39146639D6F
:1011B000D500930384000C40504016CA3AC23EC08A
:1011C0001EC8AA8701476DBFB2460C4016C836C27A
:1011D0003AC011042A878146E1B7B24616C80C40CE
:1011E000414636C23AC011042A8781465DBF914606
:1011F000639ED500930384000C40504016CA3AC247
:101200003EC01EC8AA870147A146A5BFB2460C40F2
:1012100016C836C23AC011042A878146214651B702
:101220000C401306840040403AC22A87224532C847
:101230003EC02286B687A94616CA7D31AA9442448A
:10124000B1B71301C1FD2EC832CAAA8510080145E5
:1012500006C636CC3ACE3ED032C0EFF03FC9B240DF
:10126000130141028280411122C426C206C61C21FC
:10127000AA840144DC8183073100050499EFA94762
:101280009305310005460145DC81EFF03F9D228545
:10129000B2402244924441018280054693053100C8
:1012A0000145EFF0BF9BB38784009C23DC81E1B74D
:1012B000370780007D1741113373A70013D67501DE
:1012C0009312330022C4135475011374F40F6D8FFD
:1012D00026C21376F60F9354F50116C006C6FD819B
:1012E0009A87A286268593133700B302C440638D84
:1012F000B40E6351500C630706149307F00F630C90
:10130000F414B7070004B3E3F300ED4763C75728AD
:1013100093070002B3875740B397F300B3D253004B
:10132000B337F000B3E7F2000247B307F740139773
:101330005700635E0718370300047D13B3F7670097
:101340003E853EC0792782476D15B397A700634657
:10135000851A018D0505130300023303A34033935F
:10136000670033336000B3D7A700B3E767000144D9
:1013700013F7770019C713F7F70091466303D700F7
:101380009107139757006358071405041307F00FCC
:1013900026856300E4169A07A5839376F40FB2407E
:1013A0002244A607DE06A5837E05DD8E9244558D78
:1013B000410182806399020A130614001376E60F36
:1013C0006318061463160422024663020620E388AB
:1013D00003FC0247B307774013965700635A06226F
:1013E000B387E340AE8469B76359500A49CE930787
:1013F000F00F6302F406B7070004B3E3F300ED4710
:1014000063C4572093070002B3875740B397F30094
:10141000B3D25300B337F000B3E7F2000247BA97F4
:10142000139757006355070A05041307F00F63026B
:10143000E40CB706007E13D71700FD16858B758F59
:10144000D98F3DB7638B0308FD126387021893079A
:10145000F00FE31CF4EA630D030801459306F00F57
:10146000B70740002DBFB307864065EC8246638511
:101470000614FD176383071A9306F00F631CD60E3C
:10148000AE843A83C9BF638A0304FD1263830212E8
:101490009307F00FE315F4F67DBF63980208050487
:1014A0001376E40F631E0612639C06100246630B5C
:1014B0000616E38603EEB307760013975700014440
:1014C00063570700370700FC7D17F98F054413F7B2
:1014D0007700E31207EA13D337009307F00FE30C0A
:1014E000F4F693179300A5839376F40F268545BDF4
:1014F00026859306F00F81475DB5370300FC7D1309
:10150000B3F7670013F77700098CE31607E6E1B736
:101510008247B3877740139757006342070EE391E2
:1015200007E20145814681479DBDB307864025E816
:101530008246FDCAFD17F5CF9306F00FE303D6F4FC
:101540006D476346F70E8246130700021D8F3397DF
:10155000E600B3D7F6003337E000D98F9E97328488
:10156000C1B59306F00FE30DD6F0824637070004AD
:10157000558F3AC06D47634BF70882461307000248
:101580001D8F3397E600B3D7F6003337E000D98FCD
:10159000B387F3403284AE8459BB854771B3930659
:1015A000F00FE300D6EE824637070004558F3AC0AD
:1015B00041BF82479E97ADB53A833284AE8431BF36
:1015C00093173300E38F07EAE38703E879B5638372
:1015D00003042E85BA87E1B38247B387774081BB86
:1015E0009307F00FE307F4F082479E978583C5B514
:1015F00093173300F1FBE38203E6AE8459B58247CB
:10160000AE84B387F3402DBB854709BD854749B7F5
:10161000E39F07EA0145814759B3B387D34032843A
:10162000AE8431B3BA87A5BB3A8332847DB5854792
:1016300035B7B38776003284E5B313567501B70723
:101640008000FD1713D775011376F60F1303F00F03
:10165000B3F2A7009356F501ED8F1377F70FFD81D5
:10166000630766026309670005EA11EB89EB014530
:10167000639B020082800945F5FF65DA31A8638C1F
:1016800002026380B6040545F5D67D558280094582
:10169000639802026304C70211E3F5D7E395B6FE2F
:1016A000E343C7FE6347E600E3EF57FC0145E3F37E
:1016B000F2FC99E2D9BFF1D905458280E5D3828059
:1016C00082800146C5B7011122CC1354750126CA88
:1016D00006CE931495001374F40FA5809356F5016C
:1016E0004DCC9307F00F630CF40CB70700048E0485
:1016F000DD8C130414F88147014613D57501139747
:1017000095001375F50F2583FD814DC51303F00F6B
:10171000630D65020E07130515F8370300043367E0
:1017200067002A9481431305140033C3B6002AC00E
:101730003D459A826362F510170500001305C54602
:101740008A07AA979C433E9502851304F40F61EB28
:1017500093E727008943C1BF01431307F00FB70781
:101760004000F2406244A6075E07A5831315F3010B
:10177000D98FD2445D8D05618280AE82BA841E8687
:1017800089476306F60A8D47E308F6FC854716830A
:10179000631EF61A01478147E9B7B5E013D5750115
:1017A000139795001375F50F91470144054625835E
:1017B000FD8129FD19EB93E717008543ADB79DE83F
:1017C000A1471304F00F09460DBF3A8532C83EC643
:1017D0002EC436C23AC0F52C02471303B5FF098C5C
:1017E000331767001304A4F881439246A245B24719
:1017F000424615BFB1471304F00F0D46FDBD2685C7
:101800002EC236C0F9249307B5FF1304A0F8B39491
:10181000F400098C8147014682469245F9BD93E761
:1018200037008D4309B78947B682E31EF6F4168365
:101830001307F00F814735B7C167FD17B3F3F40005
:10184000F98FC18041831E85BE85EFE0BF86AA82E5
:10185000BA851E85EFE01F86AA83BE852685EFE048
:101860007F85AA87BA852685EFE0DF8413D702013A
:10187000BE93BA9363F4F300C1673E95C167FD1749
:10188000B3F4F300C204B3F2F200A69293946200A0
:1018900093D30301B334900093D2A201AA93B3E28D
:1018A000540093946300B3E454009397440063D7C7
:1018B0000700024493D714008588DD8C1307F407D2
:1018C000635FE00293F7740099C793F7F4009146C1
:1018D0006383D70091049397440063D80700B70748
:1018E00000F8FD17FD8C130704089307E00F63CB86
:1018F000E70493976400A5831377F70F9DB5854799
:10190000B386E74011C76D4601478147E34BD6E4F4
:101910001304E40933948400B3D7D400B3348000B3
:10192000C58F13F7770019C713F7F70091466303C4
:10193000D700910713975700634C07009A07A583B8
:10194000014705B51307F00F814721BD0244BDB71C
:101950000547814739B5370680009357750113074E
:10196000F6FF93F7F70F9305E007698F9356F5019C
:1019700063FCF5009305D00963FAF5003705008094
:101980001345F5FF36958280014582809305500905
:10199000518F63CDF50013066009B307F640B357C6
:1019A000F7003305F040F5F23E8582809387A7F675
:1019B000B317F700FDB7135775013706800093077B
:1019C000F6FF1377F70F9305E007B3F6A7009357D9
:1019D000F501014563F4E50099C382808280930795
:1019E000E0097D55E3EBE7FE93055009B3E7C60038
:1019F00063D7E5001307A7F63395E7008280130548
:101A000060093307E54033D5E7008280511106C4F1
:101A100022C226C00DCD9357F54133C4A7001D8CBB
:101A2000AA8422857D209307E0093387A740930786
:101A30006009FD8063CCE702A1469377F70F63D579
:101A4000A60061153314A4002604258021A081443A
:101A500081470144260413559400A2401244DE0736
:101A6000FE045D8D458D824431018280930790098B
:101A700063DDE7009307B5019546B317F400898E3F
:101A8000B356D4003334F000558C954763D6A70085
:101A90009307B5FF3314F400B70600FCFD169377E7
:101AA00074003376D40085C39377F4009145638C3A
:101AB000B70011069317560063D707009307F00984
:101AC000758E3387A7401314660025809377F70F30
:101AD00051B7C167637CF5029307F00F130700024B
:101AE00063EBA7009707000093870710AA97882346
:101AF0003305A74082802181970700009387C70E96
:101B0000AA97882361473305A7408280B707000161
:101B1000636DF5006181970700009387E70CAA9732
:101B2000882321473305A740828041819707000021
:101B30009387870BAA97882341473305A740828064
:101B40000000803D3F065B4F666D7D077F6F004064
:101B50000108631C777C395E79716350370000009F
:101B60000000C8420000A040537461727465642193
:101B70000D00000054656D703A202D25642E25302F
:101B80003264206F430A0D0054656D703A2025645D
:101B90002E25303264206F430A0D0000286E756CCC
:101BA0006C29000094FCFFFFD8FBFFFFD8FBFFFF70
:101BB000D6FBFFFFDCFBFFFFDCFBFFFFB4FBFFFFFF
:101BC000D6FBFFFFDCFBFFFFB4FBFFFFDCFBFFFFEF
:101BD000D6FBFFFF82FCFFFF82FCFFFF82FCFFFFC2
:101BE000B4FBFFFF00010202030303030404040427
:101BF0000404040405050505050505050505050599
:101C00000505050506060606060606060606060678
:101C10000606060606060606060606060606060664
:101C20000606060607070707070707070707070748
:101C30000707070707070707070707070707070734
:101C40000707070707070707070707070707070724
:101C50000707070707070707070707070707070714
:101C600007070707080808080808080808080808F8
:101C700008080808080808080808080808080808E4
:101C800008080808080808080808080808080808D4
:101C900008080808080808080808080808080808C4
:101CA00008080808080808080808080808080808B4
:101CB00008080808080808080808080808080808A4
:101CC0000808080808080808080808080808080894
:101CD0000808080808080808080808080808080884
:041CE00008080808E0
:101CE40000366E010204060804080C1008101820BF
:101CF40010203040204060800102030405060708DC
:081D04000102030405060708B3
:00000001FF
