:100000006F00807500000000000300000203000084
:1000100000000000000000000000000000000000E0
:1000200000000000000000000000000000000000D0
:100030005607000000000000560700000000000006
:10004000560700005607000056070000560700003C
:10005000560700005607000056070000560700002C
:10006000560700005607000056070000560700001C
:10007000560700005607000056070000560700000C
:1000800056070000560700005607000056070000FC
:100090005607000056070000560700000000000049
:1000A000511126C022C206C4828282441244A24058
:1000B000310182802A86014593F6150091C232955E
:1000C00085810606F5F9828000000000634E050276
:1000D00063C305042E86AA857D5515C285466378BF
:1000E000B6006356C00006068606E36CB6FE014500
:1000F00063E4C500918D558D85820582F5FA828075
:100100008682C93F2E8582823305A04063D70500D1
:10011000B305B040C1B7B305B0408682653F330533
:10012000A0408282868263C70500634905005D376F
:100130002E858282B305B040E35B05FE3305A04007
:10014000513F3305B040828200003D432A876373EC
:10015000C3029377F700BDEFADE5937606FF3D8AC6
:10016000BA960CC34CC30CC74CC74107E36BD7FE10
:1001700011E28280B306C3408A0697020000969679
:100180006780A6002307B700A306B7002306B700C1
:10019000A305B7002305B700A304B7002304B700E5
:1001A000A303B7002303B700A302B7002302B700DD
:1001B000A301B7002301B700A300B7002300B700D5
:1001C000828093F5F50F93968500D58D9396050162
:1001D000D58D61B793962700970200009696868288
:1001E000E78086FA9680C1171D8F3E96E374C3F8A8
:1001F000A5B7EFF2FFEAB727014071111385074059
:100200009D460546A145EF00206CB7270140938726
:100210000740014481443EC002458545EF004069E6
:1002200002458945EF00607665DD09C40245EF00AF
:100230004075AA9405041374F40FAD47E31EF4FC53
:10024000A9452685413D420541811101B9BDEFF225
:100250003FE51301C1FD61468145680002C002C24D
:1002600002C4E535854513054020EF0010043165D3
:10027000EF0070023715014091478A85130505800C
:10028000372401407C8002C4EF0000721305044053
:10029000A52BB7070E003ECC6C0085471305044024
:1002A0002300F10202C602C802CA02CE4923B705E2
:1002B000000213050440EF00E06D8545130504407E
:1002C000EF00C05B13050440EF00405C9304044062
:1002D0002685EF00405C6DFD130504403724014086
:1002E000EF00E05B130404402285EF00E05B6DFD4E
:1002F00009371301410255BBEFF29FDADD3D75B3BB
:1003000001A0B707EFBE37E700E0938707083CC7B7
:1003100001A0EFF2FFD87111C14537150140EF0080
:1003200040710545EF00607FC1470144B7140140AB
:100330009145138504803EC0EF00606F0545EF00D6
:10034000C07D06048945138504804204EF00806D5A
:100350004180824719C113641400914513850480BC
:100360003EC0EF00006D0545EF00207B8247FD1782
:1003700093F7F70FD5FFC14537150140EF00206B0C
:10038000B706002037070020B70700201376440087
:1003900093868601130707009387C70101CA0546A4
:1003A00090A210A323900700110101B3238006003F
:1003B0001580B7060020239D8600142389C6FD16EC
:1003C00082A314A3D5B79A2333048740058433044A
:1003D000874082A3D1BFEFF2BFCC1111752A05452A
:1003E000EF00E069EF0020708545114502C802CAA0
:1003F00002CCEF00806B85454145EF00006BC147A3
:100400000D44FC800C08C147371501403ECC22CA80
:10041000612B22CA371401409144C1470C081305CF
:100420000480E4803ECC49238947FC800C08914736
:10043000130504803ECC8D2BC14537150140C52BDB
:10044000914513050480F523193513054006EF0087
:100450006070BD2C0D455D24156513055555C48789
:10046000C5231545D5231305803EDD23B7040020A1
:10047000E523D52BD5234935AA8537C512001305A9
:1004800005B589391317050141833AC45935B707B2
:10049000002003D4C70183C684019305400622854A
:1004A00036C20D399377F50FA94522855C863EC08B
:1004B00015314205A9454181A131C886A94522854A
:1004C0008131824748879246224799E3A9475C8653
:1004D00095CEB7170B0B9387B7B03EC6856793874A
:1004E000F7C763E4E700DD47DC8701447C00A2979F
:1004F0008C231375F40F0146052405049147E31777
:10050000F4FE1305401FEF00E064ADB7B947DC8788
:10051000F1B7EFF2FFB8371402401C403707FFF87D
:10052000414593E717001CC05C40F98F5CC01C403C
:100530003707F7FE7D17F98F1CC01C403707FCFFFB
:100540007D17F98F1CC05C4041777D17F98F5CC027
:10055000B7079F001CC43D231C4C93E707021CCC2B
:10056000B717014003A70740938607401377F7F0BA
:1005700023A0E74003A707401367070823A0E7402D
:1005800089479CCAB72702409843719B98C39843F8
:1005900098C35C405CC011BEEFF29FB037170240B9
:1005A0005C43370400209146B18B130444016385FA
:1005B000D700A1466380D704B7376E0193870760E1
:1005C0001CC0B7160240DC420840918313F7F700C5
:1005D000B707002093874700BA978C23DC4293F536
:1005E000F50F93F707083357B50099E3E5342A87E9
:1005F00018C065BC5C43B777DC02938707C0C9B7F6
:10060000711102C01307100382476354F7001101F0
:100610008280824785073EC0C5BFEFF27FA80546AE
:100620009145371501400129054689453715014097
:100630001921F9370146914537150140ED2EB5B422
:10064000EFF21FA60146894537150140ED264D3FC3
:100650000146914537150140F92E5D37054689451C
:1006600037150140C92E693F0546914537150140B0
:10067000D92625BCEFF2DFA2AA8421440146894590
:10068000371501404D2E13F61400914537150140E2
:100690005D267D14B537054689453715014013742D
:1006A000F40F512E8580A93F71F801468945371511
:1006B00001405126B1370546914537150140A52E19
:1006C00081370546894537150140B526153FF1BAF2
:1006D000EFF21F9D51118545414502C002C202C47F
:1006E000E92699477C80D1473EC48A8585473715DE
:1006F00001403EC2552C31016FF03F9BEFF25F9AF3
:1007000071112AC0193F02451D89136585089D375F
:10071000053F11016FF07F99EFF29F98F547AA848A
:10072000014463E7B7008567938707B9AE978023D5
:1007300019C213640408D53513054004253F093751
:10074000E93D138504FC1375F50F2D3722851D3700
:10075000C53D6FF09F9501A0970100209381010C8A
:10076000138181FE1305000A970500209385858972
:10077000170600201306068963FAC50083220500C8
:1007800023A0550011059105E3EAC5FE17050000F9
:1007900013050542970500209385C586170600209E
:1007A0001306C68763FAC5008322050023A05500FF
:1007B00011059105E3EAC5FE17050020130505861E
:1007C000938501816377B500232005001105E36D52
:1007D000B5FEB722000093820288739002308D42EA
:1007E00073904280970200009382C28193E23200AC
:1007F00073905230EFF0FFD1970200009382E2BD78
:100800007390123473002030B7270140938707405C
:10081000631EF500EFF2DF888545130500206D2487
:100820008145130500204D246FF03F8882805C4194
:100830003707F1FF1307F7EF7D8FDC419441A207E3
:10084000D58FD98F5CC11C4537F7F1FF1307D77FD0
:10085000D4457D8F9C49D58F94458606D58FD98FF9
:100860001CC55C55370710FF7D177D8FDC29FD17F0
:1008700093F7F70FD207D98F5CD582801C4589C5C5
:1008800093E717001CC58280F99BEDBF1C4593E7D9
:1008900087001CC5828008450D81058982801C4522
:1008A00093E747001CC5828008450981058982803D
:1008B0001C4591C537075000D98F1CC5828037076A
:1008C000B0FF7D17F98FD5BFA54763F8B70413872D
:1008D00065FF931717008322C500BA971D43331392
:1008E000F3001343F3FF33735300B397F600B3E7FA
:1008F00067005CC5994763E3C7047D16931726001C
:100900003E965859FD47B397C70093C7F7FFF98F35
:10091000B395C500DD8D4CD98280939715000323D4
:100920000501AE971D473317F7001347F7FF3377DD
:100930006700B397F6005D8F18C96DBFB14763E2DA
:10094000C7026516931726003E961859FD47B397C0
:10095000C70093C7F7FFF98FB395C500DD8D0CD99C
:1009600082804D161317260054553A96FD47B397CB
:10097000C70093C7F7FFF58FB395C500DD8D4CD544
:100980008280684542054181828008416D8D333502
:10099000A00082805C41370700FA7D17F98F5CC1A7
:1009A0005C41DD8D4CC18280944593F7060193F242
:1009B000F60081C7DC41B3E2F20083D3050093F770
:1009C000F30FA5C303230500611122C226C081478E
:1009D000130480029304800405473316F70033F7AD
:1009E000C3006312E602939527003D473317B70013
:1009F0001347F7FF33736700B395B20033E3650025
:100A0000639D860050C985072147E397E7FC1244A0
:100A100023206500824421018280E39696FE10C95E
:100A2000DDB7828008456D8D3335A00082800CC90A
:100A300082804CC9828019C20CC982804CC98280D4
:100A4000B737004088C38280B7370040C8C3828070
:100A5000B737004088C78280AD673737004093873B
:100A6000A7AA1CC38280B567373700409387C7CCDD
:100A70001CC3371702405C53898BF5DF828023A4A7
:100A8000A1808280371702401C430E0593F777F050
:100A90005D8D08C38280B7160240DC4241771307A0
:100AA000F77FF98F5D8DC8C2828099C537170240E4
:100AB0001C4F5D8D08CF8280B7170240984F1345B9
:100AC000F5FF798D88CF828099C5371702405C4742
:100AD0005D8D48C78280B7170240D8471345F5FFA0
:100AE000798DC8C78280EFF2AFDBB707002003A57E
:100AF0004701B7157A0093850520EFF0AFDD137538
:100B0000F50F2387A18093175500898F8A073E959B
:100B10000E052396A1806FF04FD9EFF26FD837F40E
:100B200000E05C40AA85F99B5CC003C5E180EFF062
:100B30006FD808C8232404001C4093E717001CC08A
:100B4000B7F700E0D843058B75DF9843799B98C3CE
:100B50006FF0AFD5EFF2CFD437F400E05C40AA8558
:100B6000F99B5CC003D5C180EFF0CFD408C8232423
:100B700004001C4093E717001CC0B7F700E0D843FF
:100B8000058B75DF9843799B98C36FF00FD20000F7
:100B90003F065B4F666D7D077F6F00400108631C59
:0C0BA000030C585E797176387300000079
:100BAC000200000001020304050607080102030409
:080BBC000506070800366E0172
:00000001FF
